{"abi":[{"inputs":[{"internalType":"address","name":"_vrfCoordinator","type":"address"},{"internalType":"address","name":"_link","type":"address"},{"internalType":"uint256","name":"_fee","type":"uint256"},{"internalType":"bytes32","name":"_keyHash","type":"bytes32"},{"internalType":"address","name":"_mscTokenAddress","type":"address"}],"stateMutability":"nonpayable","type":"constructor","name":"constructor"},{"anonymous":false,"inputs":[{"indexed":true,"internalType":"address","name":"previousOwner","type":"address"},{"indexed":true,"internalType":"address","name":"newOwner","type":"address"}],"name":"OwnershipTransferred","type":"event"},{"anonymous":false,"inputs":[{"indexed":false,"internalType":"bytes32","name":"requestId","type":"bytes32"}],"name":"RequestedRandomness","type":"event"},{"inputs":[{"internalType":"address","name":"_token","type":"address"}],"name":"allowToken","outputs":[],"stateMutability":"nonpayable","type":"function"},{"inputs":[{"internalType":"uint256","name":"","type":"uint256"}],"name":"allowedTokens","outputs":[{"internalType":"address","name":"","type":"address"}],"stateMutability":"view","type":"function"},{"inputs":[{"internalType":"uint256","name":"_amount","type":"uint256"},{"internalType":"address","name":"_token","type":"address"}],"name":"betMoney","outputs":[],"stateMutability":"nonpayable","type":"function"},{"inputs":[{"internalType":"address","name":"","type":"address"},{"internalType":"uint256","name":"","type":"uint256"}],"name":"cardNumbers","outputs":[{"internalType":"uint256","name":"","type":"uint256"}],"stateMutability":"view","type":"function"},{"inputs":[],"name":"competedToken","outputs":[{"internalType":"address","name":"","type":"address"}],"stateMutability":"view","type":"function"},{"inputs":[{"internalType":"address","name":"_token","type":"address"}],"name":"drawCards","outputs":[],"stateMutability":"nonpayable","type":"function"},{"inputs":[],"name":"endGame","outputs":[],"stateMutability":"nonpayable","type":"function"},{"inputs":[],"name":"fee","outputs":[{"internalType":"uint256","name":"","type":"uint256"}],"stateMutability":"view","type":"function"},{"inputs":[],"name":"game_state","outputs":[{"internalType":"enum CardGame.GAME_STATE","name":"","type":"uint8"}],"stateMutability":"view","type":"function"},{"inputs":[{"internalType":"address","name":"_token","type":"address"}],"name":"getPlayerSingleTokenValue","outputs":[{"internalType":"uint256","name":"","type":"uint256"}],"stateMutability":"view","type":"function"},{"inputs":[{"internalType":"address","name":"_token","type":"address"}],"name":"getTokenValue","outputs":[{"internalType":"uint256","name":"","type":"uint256"},{"internalType":"uint256","name":"","type":"uint256"}],"stateMutability":"view","type":"function"},{"inputs":[{"internalType":"address","name":"_token","type":"address"}],"name":"getWinner","outputs":[{"internalType":"address","name":"","type":"address"}],"stateMutability":"nonpayable","type":"function"},{"inputs":[{"internalType":"address","name":"_token","type":"address"}],"name":"issueTokens","outputs":[],"stateMutability":"nonpayable","type":"function"},{"inputs":[],"name":"keyHash","outputs":[{"internalType":"bytes32","name":"","type":"bytes32"}],"stateMutability":"view","type":"function"},{"inputs":[],"name":"mscToken","outputs":[{"internalType":"contract IERC20","name":"","type":"address"}],"stateMutability":"view","type":"function"},{"inputs":[],"name":"mscTokenAddress","outputs":[{"internalType":"address","name":"","type":"address"}],"stateMutability":"view","type":"function"},{"inputs":[],"name":"owner","outputs":[{"internalType":"address","name":"","type":"address"}],"stateMutability":"view","type":"function"},{"inputs":[{"internalType":"address","name":"","type":"address"}],"name":"playerCounter","outputs":[{"internalType":"uint256","name":"","type":"uint256"}],"stateMutability":"view","type":"function"},{"inputs":[{"internalType":"address","name":"","type":"address"},{"internalType":"uint256","name":"","type":"uint256"}],"name":"players","outputs":[{"internalType":"address","name":"","type":"address"}],"stateMutability":"view","type":"function"},{"inputs":[{"internalType":"address","name":"","type":"address"},{"internalType":"address","name":"","type":"address"}],"name":"playersCardNumber","outputs":[{"internalType":"uint256","name":"","type":"uint256"}],"stateMutability":"view","type":"function"},{"inputs":[],"name":"randomness","outputs":[{"internalType":"uint256","name":"","type":"uint256"}],"stateMutability":"view","type":"function"},{"inputs":[{"internalType":"bytes32","name":"requestId","type":"bytes32"},{"internalType":"uint256","name":"randomness","type":"uint256"}],"name":"rawFulfillRandomness","outputs":[],"stateMutability":"nonpayable","type":"function"},{"inputs":[],"name":"renounceOwnership","outputs":[],"stateMutability":"nonpayable","type":"function"},{"inputs":[{"internalType":"uint256","name":"_amount","type":"uint256"},{"internalType":"address","name":"_token","type":"address"}],"name":"repayBetToken","outputs":[],"stateMutability":"nonpayable","type":"function"},{"inputs":[{"internalType":"uint256","name":"_amount","type":"uint256"}],"name":"sendMSCToken","outputs":[],"stateMutability":"nonpayable","type":"function"},{"inputs":[{"internalType":"address","name":"_token","type":"address"},{"internalType":"address","name":"_priceFeed","type":"address"}],"name":"setPriceFeedContract","outputs":[],"stateMutability":"nonpayable","type":"function"},{"inputs":[],"name":"startGame","outputs":[],"stateMutability":"nonpayable","type":"function"},{"inputs":[{"internalType":"address","name":"_token","type":"address"}],"name":"tokenIsAllowed","outputs":[{"internalType":"bool","name":"","type":"bool"}],"stateMutability":"nonpayable","type":"function"},{"inputs":[{"internalType":"address","name":"","type":"address"}],"name":"tokenPriceFeeds","outputs":[{"internalType":"address","name":"","type":"address"}],"stateMutability":"view","type":"function"},{"inputs":[],"name":"tokenToRandomness","outputs":[{"internalType":"address","name":"","type":"address"}],"stateMutability":"view","type":"function"},{"inputs":[{"internalType":"address","name":"","type":"address"}],"name":"totalPot","outputs":[{"internalType":"uint256","name":"","type":"uint256"}],"stateMutability":"view","type":"function"},{"inputs":[{"internalType":"address","name":"newOwner","type":"address"}],"name":"transferOwnership","outputs":[],"stateMutability":"nonpayable","type":"function"},{"inputs":[{"internalType":"address","name":"","type":"address"},{"internalType":"address","name":"","type":"address"}],"name":"wagerOfPlayer","outputs":[{"internalType":"uint256","name":"","type":"uint256"}],"stateMutability":"view","type":"function"},{"inputs":[{"internalType":"address","name":"","type":"address"}],"name":"winner","outputs":[{"internalType":"address","name":"","type":"address"}],"stateMutability":"view","type":"function"}],"bytecode":"60c0604052600f80546001600160a01b03199081169091556010805490911690553480156200002d57600080fd5b50604051620026ed380380620026ed83398101604081905262000050916200012c565b6001600160a01b0385811660a05284166080526200006e33620000bd565b6002919091556003919091556004805460016001600160a81b03199091166101006001600160a01b0390941693840217179055600580546001600160a01b0319169091179055506200018a9050565b600180546001600160a01b038381166001600160a01b0319831681179093556040519116919082907f8be0079c531659141344cd1fd0a4f28419497f9722a3daafe3b4186f6b6457e090600090a35050565b80516001600160a01b03811681146200012757600080fd5b919050565b600080600080600060a086880312156200014557600080fd5b62000150866200010f565b945062000160602087016200010f565b935060408601519250606086015191506200017e608087016200010f565b90509295509295909350565b60805160a051612536620001b760003960008181610c770152611b4c01526000611b1d01526125366000f3fe608060405234801561001057600080fd5b50600436106102065760003560e01c80638ae43b541161011a578063bd9c47e3116100ad578063ddca3f431161007c578063ddca3f43146104ba578063f1c5d6c2146104c3578063f1d76a5f146104eb578063f2fde38b146104fe578063fe05cc9c1461051157600080fd5b8063bd9c47e314610446578063cd5ea4f81461046f578063d65ab5f21461048f578063dd5b84671461049757600080fd5b80639c753122116100e95780639c753122146103fa578063b53472ef1461040d578063b81baa5914610420578063b90c899d1461043357600080fd5b80638ae43b54146103a95780638b42eb7c146103c35780638da5cb5b146103d657806394985ddd146103e757600080fd5b806345d7c3b91161019d57806366ce6dab1161016c57806366ce6dab146103435780636cbc2ded1461036e578063715018a614610376578063877dd39d1461037e57806387cd6ad21461039157600080fd5b806345d7c3b9146102f45780635e5f2e261461030757806361728f391461031a57806366a1df651461032357600080fd5b80632ad95786116101d95780632ad957861461028457806336013189146102ad5780633fdb144b146102b65780633ff54c71146102e157600080fd5b806305f3bbd91461020b5780630b26083c1461023157806324398a85146102465780632521cc4614610259575b600080fd5b61021e6102193660046120d2565b610524565b6040519081526020015b60405180910390f35b61024461023f3660046120fc565b610555565b005b61021e610254366004612115565b610601565b60105461026c906001600160a01b031681565b6040516001600160a01b039091168152602001610228565b61026c610292366004612115565b600e602052600090815260409020546001600160a01b031681565b61021e60115481565b61021e6102c4366004612137565b600b60209081526000928352604080842090915290825290205481565b6102446102ef366004612115565b61067d565b600f5461026c906001600160a01b031681565b61026c6103153660046120fc565b6107a3565b61021e60025481565b61021e610331366004612115565b600a6020526000908152604090205481565b61021e610351366004612137565b600660209081526000928352604080842090915290825290205481565b6102446107cd565b610244610b63565b61024461038c366004612137565b610b99565b60045461026c9061010090046001600160a01b031681565b6004546103b69060ff1681565b6040516102289190612180565b6102446103d1366004612115565b610bf1565b6001546001600160a01b031661026c565b6102446103f53660046121a8565b610c6c565b61026c6104083660046120d2565b610cee565b61024461041b366004612115565b610d26565b61024461042e3660046121ca565b610da2565b61026c610441366004612115565b611054565b61026c610454366004612115565b6007602052600090815260409020546001600160a01b031681565b61021e61047d366004612115565b600c6020526000908152604090205481565b6102446113e5565b6104aa6104a5366004612115565b611489565b6040519015158152602001610228565b61021e60035481565b6104d66104d1366004612115565b6114e6565b60408051928352602083019190915201610228565b6102446104f93660046121ca565b6115e7565b61024461050c366004612115565b6119a6565b60055461026c906001600160a01b031681565b600d602052816000526040600020818154811061054057600080fd5b90600052602060002001600091509150505481565b6001546001600160a01b031633146105885760405162461bcd60e51b815260040161057f906121ed565b60405180910390fd5b60055460405163a9059cbb60e01b8152336004820152602481018390526001600160a01b039091169063a9059cbb906044016020604051808303816000875af11580156105d9573d6000803e3d6000fd5b505050506040513d601f19601f820116820180604052508101906105fd9190612222565b5050565b6001600160a01b03811660009081526006602090815260408220338352905260008061062c846114e6565b909250905061063c81600a61233e565b6001600160a01b038516600090815260066020908152604080832033845290915290205461066b90849061234a565b610675919061237f565b949350505050565b6001546001600160a01b031633146106a75760405162461bcd60e51b815260040161057f906121ed565b60005b6001600160a01b0382166000908152600860205260409020548110156105fd576001600160a01b03821660009081526008602052604081208054839081106106f4576106f4612393565b60009182526020822001546001600160a01b031691506107148285611a41565b60055460405163a9059cbb60e01b81526001600160a01b0385811660048301526024820184905292935091169063a9059cbb906044016020604051808303816000875af1158015610769573d6000803e3d6000fd5b505050506040513d601f19601f8201168201806040525081019061078d9190612222565b505050808061079b906123a9565b9150506106aa565b600981815481106107b357600080fd5b6000918252602090912001546001600160a01b0316905081565b6001546001600160a01b031633146107f75760405162461bcd60e51b815260040161057f906121ed565b600260045460ff1660028111156108105761081061216a565b146108555760405162461bcd60e51b8152602060048201526015602482015274596f75206172656e2774207468657265207965742160581b604482015260640161057f565b60105461086a906001600160a01b0316611489565b6108b25760405162461bcd60e51b8152602060048201526019602482015278151a1a5cc81d1bdad95b881a5cc81b9bdd08185b1b1bddd959603a1b604482015260640161057f565b6010546001600160a01b039081166000908152600e60205260409020541661092e5760405162461bcd60e51b815260206004820152602960248201527f5374696c6c20646f65736e2774206b6e6f7720776869636820706c617965722060448201526834b9903bb4b73732b960b91b606482015260840161057f565b6010546001600160a01b039081166000818152600e6020908152604080832054600a909252918290205491516323b872dd60e01b8152336004820152931660248401526044830152906323b872dd906064016020604051808303816000875af115801561099f573d6000803e3d6000fd5b505050506040513d601f19601f820116820180604052508101906109c39190612222565b506010546001600160a01b03166000908152600a602052604081208190555b6010546001600160a01b0316600090815260086020526040902054811015610a8e576010546001600160a01b03166000908152600860205260408120805483908110610a3057610a30612393565b6000918252602080832090910154601080546001600160a01b0390811685526006845260408086209382168087529385528086208690559154168452600b835280842091845291528120555080610a86816123a9565b9150506109e2565b50600f80546001600160a01b0319169055601080546001600160a01b039081166000908152600c60209081526040808320839055805183815280830180835295549094168352600890915290209051610ae79290612006565b5060408051600080825260208083018085526010546001600160a01b03168352600d9091529290209051610b1b929061206b565b50601080546001600160a01b03166000908152600e6020526040902080546001600160a01b03199081169091558154169055600480546001919060ff191682805b0217905550565b6001546001600160a01b03163314610b8d5760405162461bcd60e51b815260040161057f906121ed565b610b976000611ac7565b565b6001546001600160a01b03163314610bc35760405162461bcd60e51b815260040161057f906121ed565b6001600160a01b03918216600090815260076020526040902080546001600160a01b03191691909216179055565b60048054600260ff199091168117909155600f80546001600160a01b0319166001600160a01b03841617905554600354600091610c2d91611b19565b90507fe5f5b44d72d4143c278eb745c4acc0695c4a5bc616be5beecf46abe29661780e81604051610c6091815260200190565b60405180910390a15050565b336001600160a01b037f00000000000000000000000000000000000000000000000000000000000000001614610ce45760405162461bcd60e51b815260206004820152601f60248201527f4f6e6c7920565246436f6f7264696e61746f722063616e2066756c66696c6c00604482015260640161057f565b6105fd8282611c90565b60086020528160005260406000208181548110610d0a57600080fd5b6000918252602090912001546001600160a01b03169150829050565b6001546001600160a01b03163314610d505760405162461bcd60e51b815260040161057f906121ed565b600980546001810182556000919091527f6e1540171b6c0c960b71a7020d9f60077f6af931a8bbf590da0223dacf75c7af0180546001600160a01b0319166001600160a01b0392909216919091179055565b600060045460ff166002811115610dbb57610dbb61216a565b1480610ddd5750600160045460ff166002811115610ddb57610ddb61216a565b145b610e3e5760405162461bcd60e51b815260206004820152602c60248201527f596f752063616e2774206765742074686520726566756e64206166746572206760448201526b616d6520737461727465642160a01b606482015260840161057f565b6001600160a01b0381166000908152600660209081526040808320338452909152902054821115610ebd5760405162461bcd60e51b815260206004820152602360248201527f596f75206469646e27742062657420746f6b656e206f662074686520616d6f756044820152626e742160e81b606482015260840161057f565b6001600160a01b0381166000908152600b6020908152604080832033845290915290205415610f3c5760405162461bcd60e51b815260206004820152602560248201527f596f75206472657720796f757220636172642c20796f752063616e277420726560448201526466756e642160d81b606482015260840161057f565b60405163a9059cbb60e01b8152336004820152602481018390526001600160a01b0382169063a9059cbb906044016020604051808303816000875af1158015610f89573d6000803e3d6000fd5b505050506040513d601f19601f82011682018060405250810190610fad9190612222565b506001600160a01b0381166000908152600660209081526040808320338452909152902054610fdd9083906123c4565b6001600160a01b0382166000818152600660209081526040808320338452825280832094909455918152600a90915220546110199083906123c4565b6001600160a01b0382166000908152600a602090815260408083209390935560068152828220338352905220546105fd576105fd8133611e07565b6001546000906001600160a01b031633146110815760405162461bcd60e51b815260040161057f906121ed565b600260045460ff16600281111561109a5761109a61216a565b146110df5760405162461bcd60e51b815260206004820152601560248201527447616d65206973206e6f74206f766572207965742160581b604482015260640161057f565b6010546001600160a01b031615611160576040805162461bcd60e51b81526020600482015260248101919091527f4265666f72652067616d65206973206e6f74206f766572207965742c206f776e60448201527f6572206861766520746f207061792072657761726420746f2077696e6e657221606482015260840161057f565b61116982611f6f565b6111c45760405162461bcd60e51b815260206004820152602660248201527f416c6c207061727469636970616e7473206e6565647320746f2064726177206160448201526520636172642160d01b606482015260840161057f565b6000805b6001600160a01b0384166000908152600d60205260409020548110156113ac576001600160a01b0384166000908152600d6020526040902080548391908390811061121557611215612393565b906000526020600020015411156112d0576001600160a01b0384166000908152600d6020526040902080548290811061125057611250612393565b9060005260206000200154915060086000856001600160a01b03166001600160a01b03168152602001908152602001600020818154811061129357611293612393565b60009182526020808320909101546001600160a01b038781168452600e909252604090922080546001600160a01b0319169190921617905561139a565b6001600160a01b0384166000908152600d602052604090208054839190839081106112fd576112fd612393565b9060005260206000200154141561139a57600061131b6002846123db565b905080611389576001600160a01b038516600090815260086020526040902080548390811061134c5761134c612393565b60009182526020808320909101546001600160a01b038881168452600e909252604090922080546001600160a01b03191691909216179055611398565b8060011415611398575061139a565b505b806113a4816123a9565b9150506111c8565b5050601080546001600160a01b0319166001600160a01b038481169182179092556000908152600e60205260409020541690505b919050565b6001546001600160a01b0316331461140f5760405162461bcd60e51b815260040161057f906121ed565b600160045460ff1660028111156114285761142861216a565b146114755760405162461bcd60e51b815260206004820152601f60248201527f43616e2774207374617274206e65772067616d65207374617465207965742100604482015260640161057f565b600480546000919060ff1916600183610b5c565b6000806009548110156114e057826001600160a01b0316600982815481106114b3576114b3612393565b6000918252602090912001546001600160a01b031614156114d75750600192915050565b50600092915050565b50919050565b6001600160a01b03808216600090815260076020526040808220548151633fabe5a360e21b815291519293849391169182918491839163feaf968c9160048082019260a0929091908290030181865afa158015611547573d6000803e3d6000fd5b505050506040513d601f19601f8201168201806040525081019061156b9190612421565b5050509150506000826001600160a01b031663313ce5676040518163ffffffff1660e01b8152600401602060405180830381865afa1580156115b1573d6000803e3d6000fd5b505050506040513d601f19601f820116820180604052508101906115d59190612471565b919760ff909216965090945050505050565b600082116116375760405162461bcd60e51b815260206004820152601960248201527f4120626574206d757374206265206d6f7265207468616e203000000000000000604482015260640161057f565b61164081611489565b6116885760405162461bcd60e51b8152602060048201526019602482015278151a1a5cc81d1bdad95b881a5cc81b9bdd08185b1b1bddd959603a1b604482015260640161057f565b6001600160a01b0381166000908152600860205260409020546005116117165760405162461bcd60e51b815260206004820152603860248201527f536f7272792c20746869732067616d6520697320616c72656164792066756c6c60448201527f2e20506c656173652077616974206e6578742067616d652e0000000000000000606482015260840161057f565b600060045460ff16600281111561172f5761172f61216a565b1461177c5760405162461bcd60e51b815260206004820152601a60248201527f596f752063616e277420626574206d6f6e6579207768696c6520000000000000604482015260640161057f565b6004546001600160a01b03828116610100909204161415611818576005546040516323b872dd60e01b8152336004820152306024820152604481018490526001600160a01b03909116906323b872dd906064016020604051808303816000875af11580156117ee573d6000803e3d6000fd5b505050506040513d601f19601f820116820180604052508101906118129190612222565b50611891565b6040516323b872dd60e01b8152336004820152306024820152604481018390526001600160a01b038216906323b872dd906064016020604051808303816000875af115801561186b573d6000803e3d6000fd5b505050506040513d601f19601f8201168201806040525081019061188f9190612222565b505b6001600160a01b03811660009081526006602090815260408083203384529091529020546118c09083906123ef565b6001600160a01b038216600081815260066020908152604080832033845282528083209490945591815260089091522054611915576001600160a01b0381166000908152600a60205260409020829055611953565b6001600160a01b0381166000908152600a60205260409020546119399083906123ef565b6001600160a01b0382166000908152600a60205260409020555b6001600160a01b0316600081815260086020908152604080832080546001810182559084528284200180546001600160a01b03191633908117909155938352600b82528083209383529290529081205550565b6001546001600160a01b031633146119d05760405162461bcd60e51b815260040161057f906121ed565b6001600160a01b038116611a355760405162461bcd60e51b815260206004820152602660248201527f4f776e61626c653a206e6577206f776e657220697320746865207a65726f206160448201526564647265737360d01b606482015260840161057f565b611a3e81611ac7565b50565b6001600160a01b0380821660009081526006602090815260408220928516825291909152600080611a71846114e6565b9092509050611a8181600a61233e565b6001600160a01b038086166000908152600660209081526040808320938a1683529290522054611ab290849061234a565b611abc919061237f565b925050505b92915050565b600180546001600160a01b038381166001600160a01b0319831681179093556040519116919082907f8be0079c531659141344cd1fd0a4f28419497f9722a3daafe3b4186f6b6457e090600090a35050565b60007f00000000000000000000000000000000000000000000000000000000000000006001600160a01b0316634000aea07f000000000000000000000000000000000000000000000000000000000000000084866000604051602001611b89929190918252602082015260400190565b6040516020818303038152906040526040518463ffffffff1660e01b8152600401611bb693929190612494565b6020604051808303816000875af1158015611bd5573d6000803e3d6000fd5b505050506040513d601f19601f82011682018060405250810190611bf99190612222565b5060008381526020818152604080832054815180840188905280830185905230606082015260808082018390528351808303909101815260a090910190925281519183019190912086845292909152611c539060016123ef565b6000858152602081815260409182902092909255805180830187905280820184905281518082038301815260609091019091528051910120610675565b600260045460ff166002811115611ca957611ca961216a565b14611cee5760405162461bcd60e51b8152602060048201526015602482015274596f75206172656e2774207468657265207965742160581b604482015260640161057f565b60008111611d315760405162461bcd60e51b815260206004820152601060248201526f1c985b991bdb4b5b9bdd0b599bdd5b9960821b604482015260640161057f565b60118190556000611d43600e836123db565b905080611d4e575060015b600f546001600160a01b03166000908152600860209081526040808320600c90925282205481548110611d8357611d83612393565b6000918252602080832090910154600f80546001600160a01b039081168552600b84526040808620938216808752938552808620889055825482168652600d85528086208054600181810183559188528688200189905592549091168552600c9093529183208054919450919290611dfc9084906123ef565b909155505050505050565b6000805b6001600160a01b038416600090815260086020526040902054811015611e8f576001600160a01b03848116600090815260086020526040902080549185169183908110611e5a57611e5a612393565b6000918252602090912001546001600160a01b03161415611e7d57809150611e8f565b80611e87816123a9565b915050611e0b565b50805b6001600160a01b038416600090815260086020526040902054611eb7906001906123c4565b811015611f69576001600160a01b0384166000908152600860205260409020611ee18260016123ef565b81548110611ef157611ef1612393565b60009182526020808320909101546001600160a01b03878116845260089092526040909220805491909216919083908110611f2e57611f2e612393565b600091825260209091200180546001600160a01b0319166001600160a01b039290921691909117905580611f61816123a9565b915050611e92565b50505050565b6001600160a01b0381166000908152600860205260408120548190156114e0576001600160a01b0383166000908152600860205260408120805483908110611fb957611fb9612393565b60009182526020808320909101546001600160a01b038781168452600b835260408085209190921680855292529091205490915015611ffc575060019392505050565b5060009392505050565b82805482825590600052602060002090810192821561205b579160200282015b8281111561205b57825182546001600160a01b0319166001600160a01b03909116178255602090920191600190910190612026565b506120679291506120a6565b5090565b82805482825590600052602060002090810192821561205b579160200282015b8281111561205b57825182559160200191906001019061208b565b5b8082111561206757600081556001016120a7565b80356001600160a01b03811681146113e057600080fd5b600080604083850312156120e557600080fd5b6120ee836120bb565b946020939093013593505050565b60006020828403121561210e57600080fd5b5035919050565b60006020828403121561212757600080fd5b612130826120bb565b9392505050565b6000806040838503121561214a57600080fd5b612153836120bb565b9150612161602084016120bb565b90509250929050565b634e487b7160e01b600052602160045260246000fd5b60208101600383106121a257634e487b7160e01b600052602160045260246000fd5b91905290565b600080604083850312156121bb57600080fd5b50508035926020909101359150565b600080604083850312156121dd57600080fd5b82359150612161602084016120bb565b6020808252818101527f4f776e61626c653a2063616c6c6572206973206e6f7420746865206f776e6572604082015260600190565b60006020828403121561223457600080fd5b8151801515811461213057600080fd5b634e487b7160e01b600052601160045260246000fd5b600181815b8085111561229557816000190482111561227b5761227b612244565b8085161561228857918102915b93841c939080029061225f565b509250929050565b6000826122ac57506001611ac1565b816122b957506000611ac1565b81600181146122cf57600281146122d9576122f5565b6001915050611ac1565b60ff8411156122ea576122ea612244565b50506001821b611ac1565b5060208310610133831016604e8410600b8410161715612318575081810a611ac1565b612322838361225a565b806000190482111561233657612336612244565b029392505050565b6000612130838361229d565b600081600019048311821515161561236457612364612244565b500290565b634e487b7160e01b600052601260045260246000fd5b60008261238e5761238e612369565b500490565b634e487b7160e01b600052603260045260246000fd5b60006000198214156123bd576123bd612244565b5060010190565b6000828210156123d6576123d6612244565b500390565b6000826123ea576123ea612369565b500690565b6000821982111561240257612402612244565b500190565b805169ffffffffffffffffffff811681146113e057600080fd5b600080600080600060a0868803121561243957600080fd5b61244286612407565b945060208601519350604086015192506060860151915061246560808701612407565b90509295509295909350565b60006020828403121561248357600080fd5b815160ff8116811461213057600080fd5b60018060a01b038416815260006020848184015260606040840152835180606085015260005b818110156124d6578581018301518582016080015282016124ba565b818111156124e8576000608083870101525b50601f01601f1916929092016080019594505050505056fea2646970667358221220a0b4608343058256b254d8df1a4c8fe4f0b62e8c64de193403dd427f475ece3b64736f6c634300080a0033","bytecodeSha1":"da66a7a49eaa1a4d04f17e555e782d2e7c851b06","compiler":{"evm_version":"istanbul","optimizer":{"enabled":true,"runs":200},"version":"0.8.10+commit.fc410830"},"contractName":"CardGame","language":"Solidity","natspec":{"kind":"dev","methods":{"owner()":{"details":"Returns the address of the current owner."},"renounceOwnership()":{"details":"Leaves the contract without owner. It will not be possible to call `onlyOwner` functions anymore. Can only be called by the current owner. NOTE: Renouncing ownership will leave the contract without an owner, thereby removing any functionality that is only available to the owner."},"transferOwnership(address)":{"details":"Transfers ownership of the contract to a new account (`newOwner`). Can only be called by the current owner."}},"version":1},"opcodes":"PUSH1 0x80 PUSH1 0x40 MSTORE CALLVALUE DUP1 ISZERO PUSH2 0x10 JUMPI PUSH1 0x0 DUP1 REVERT JUMPDEST POP PUSH1 0x4 CALLDATASIZE LT PUSH2 0x206 JUMPI PUSH1 0x0 CALLDATALOAD PUSH1 0xE0 SHR DUP1 PUSH4 0x8AE43B54 GT PUSH2 0x11A JUMPI DUP1 PUSH4 0xBD9C47E3 GT PUSH2 0xAD JUMPI DUP1 PUSH4 0xDDCA3F43 GT PUSH2 0x7C JUMPI DUP1 PUSH4 0xDDCA3F43 EQ PUSH2 0x4BA JUMPI DUP1 PUSH4 0xF1C5D6C2 EQ PUSH2 0x4C3 JUMPI DUP1 PUSH4 0xF1D76A5F EQ PUSH2 0x4EB JUMPI DUP1 PUSH4 0xF2FDE38B EQ PUSH2 0x4FE JUMPI DUP1 PUSH4 0xFE05CC9C EQ PUSH2 0x511 JUMPI PUSH1 0x0 DUP1 REVERT JUMPDEST DUP1 PUSH4 0xBD9C47E3 EQ PUSH2 0x446 JUMPI DUP1 PUSH4 0xCD5EA4F8 EQ PUSH2 0x46F JUMPI DUP1 PUSH4 0xD65AB5F2 EQ PUSH2 0x48F JUMPI DUP1 PUSH4 0xDD5B8467 EQ PUSH2 0x497 JUMPI PUSH1 0x0 DUP1 REVERT JUMPDEST DUP1 PUSH4 0x9C753122 GT PUSH2 0xE9 JUMPI DUP1 PUSH4 0x9C753122 EQ PUSH2 0x3FA JUMPI DUP1 PUSH4 0xB53472EF EQ PUSH2 0x40D JUMPI DUP1 PUSH4 0xB81BAA59 EQ PUSH2 0x420 JUMPI DUP1 PUSH4 0xB90C899D EQ PUSH2 0x433 JUMPI PUSH1 0x0 DUP1 REVERT JUMPDEST DUP1 PUSH4 0x8AE43B54 EQ PUSH2 0x3A9 JUMPI DUP1 PUSH4 0x8B42EB7C EQ PUSH2 0x3C3 JUMPI DUP1 PUSH4 0x8DA5CB5B EQ PUSH2 0x3D6 JUMPI DUP1 PUSH4 0x94985DDD EQ PUSH2 0x3E7 JUMPI PUSH1 0x0 DUP1 REVERT JUMPDEST DUP1 PUSH4 0x45D7C3B9 GT PUSH2 0x19D JUMPI DUP1 PUSH4 0x66CE6DAB GT PUSH2 0x16C JUMPI DUP1 PUSH4 0x66CE6DAB EQ PUSH2 0x343 JUMPI DUP1 PUSH4 0x6CBC2DED EQ PUSH2 0x36E JUMPI DUP1 PUSH4 0x715018A6 EQ PUSH2 0x376 JUMPI DUP1 PUSH4 0x877DD39D EQ PUSH2 0x37E JUMPI DUP1 PUSH4 0x87CD6AD2 EQ PUSH2 0x391 JUMPI PUSH1 0x0 DUP1 REVERT JUMPDEST DUP1 PUSH4 0x45D7C3B9 EQ PUSH2 0x2F4 JUMPI DUP1 PUSH4 0x5E5F2E26 EQ PUSH2 0x307 JUMPI DUP1 PUSH4 0x61728F39 EQ PUSH2 0x31A JUMPI DUP1 PUSH4 0x66A1DF65 EQ PUSH2 0x323 JUMPI PUSH1 0x0 DUP1 REVERT JUMPDEST DUP1 PUSH4 0x2AD95786 GT PUSH2 0x1D9 JUMPI DUP1 PUSH4 0x2AD95786 EQ PUSH2 0x284 JUMPI DUP1 PUSH4 0x36013189 EQ PUSH2 0x2AD JUMPI DUP1 PUSH4 0x3FDB144B EQ PUSH2 0x2B6 JUMPI DUP1 PUSH4 0x3FF54C71 EQ PUSH2 0x2E1 JUMPI PUSH1 0x0 DUP1 REVERT JUMPDEST DUP1 PUSH4 0x5F3BBD9 EQ PUSH2 0x20B JUMPI DUP1 PUSH4 0xB26083C EQ PUSH2 0x231 JUMPI DUP1 PUSH4 0x24398A85 EQ PUSH2 0x246 JUMPI DUP1 PUSH4 0x2521CC46 EQ PUSH2 0x259 JUMPI JUMPDEST PUSH1 0x0 DUP1 REVERT JUMPDEST PUSH2 0x21E PUSH2 0x219 CALLDATASIZE PUSH1 0x4 PUSH2 0x20D2 JUMP JUMPDEST PUSH2 0x524 JUMP JUMPDEST PUSH1 0x40 MLOAD SWAP1 DUP2 MSTORE PUSH1 0x20 ADD JUMPDEST PUSH1 0x40 MLOAD DUP1 SWAP2 SUB SWAP1 RETURN JUMPDEST PUSH2 0x244 PUSH2 0x23F CALLDATASIZE PUSH1 0x4 PUSH2 0x20FC JUMP JUMPDEST PUSH2 0x555 JUMP JUMPDEST STOP JUMPDEST PUSH2 0x21E PUSH2 0x254 CALLDATASIZE PUSH1 0x4 PUSH2 0x2115 JUMP JUMPDEST PUSH2 0x601 JUMP JUMPDEST PUSH1 0x10 SLOAD PUSH2 0x26C SWAP1 PUSH1 0x1 PUSH1 0x1 PUSH1 0xA0 SHL SUB AND DUP2 JUMP JUMPDEST PUSH1 0x40 MLOAD PUSH1 0x1 PUSH1 0x1 PUSH1 0xA0 SHL SUB SWAP1 SWAP2 AND DUP2 MSTORE PUSH1 0x20 ADD PUSH2 0x228 JUMP JUMPDEST PUSH2 0x26C PUSH2 0x292 CALLDATASIZE PUSH1 0x4 PUSH2 0x2115 JUMP JUMPDEST PUSH1 0xE PUSH1 0x20 MSTORE PUSH1 0x0 SWAP1 DUP2 MSTORE PUSH1 0x40 SWAP1 KECCAK256 SLOAD PUSH1 0x1 PUSH1 0x1 PUSH1 0xA0 SHL SUB AND DUP2 JUMP JUMPDEST PUSH2 0x21E PUSH1 0x11 SLOAD DUP2 JUMP JUMPDEST PUSH2 0x21E PUSH2 0x2C4 CALLDATASIZE PUSH1 0x4 PUSH2 0x2137 JUMP JUMPDEST PUSH1 0xB PUSH1 0x20 SWAP1 DUP2 MSTORE PUSH1 0x0 SWAP3 DUP4 MSTORE PUSH1 0x40 DUP1 DUP5 KECCAK256 SWAP1 SWAP2 MSTORE SWAP1 DUP3 MSTORE SWAP1 KECCAK256 SLOAD DUP2 JUMP JUMPDEST PUSH2 0x244 PUSH2 0x2EF CALLDATASIZE PUSH1 0x4 PUSH2 0x2115 JUMP JUMPDEST PUSH2 0x67D JUMP JUMPDEST PUSH1 0xF SLOAD PUSH2 0x26C SWAP1 PUSH1 0x1 PUSH1 0x1 PUSH1 0xA0 SHL SUB AND DUP2 JUMP JUMPDEST PUSH2 0x26C PUSH2 0x315 CALLDATASIZE PUSH1 0x4 PUSH2 0x20FC JUMP JUMPDEST PUSH2 0x7A3 JUMP JUMPDEST PUSH2 0x21E PUSH1 0x2 SLOAD DUP2 JUMP JUMPDEST PUSH2 0x21E PUSH2 0x331 CALLDATASIZE PUSH1 0x4 PUSH2 0x2115 JUMP JUMPDEST PUSH1 0xA PUSH1 0x20 MSTORE PUSH1 0x0 SWAP1 DUP2 MSTORE PUSH1 0x40 SWAP1 KECCAK256 SLOAD DUP2 JUMP JUMPDEST PUSH2 0x21E PUSH2 0x351 CALLDATASIZE PUSH1 0x4 PUSH2 0x2137 JUMP JUMPDEST PUSH1 0x6 PUSH1 0x20 SWAP1 DUP2 MSTORE PUSH1 0x0 SWAP3 DUP4 MSTORE PUSH1 0x40 DUP1 DUP5 KECCAK256 SWAP1 SWAP2 MSTORE SWAP1 DUP3 MSTORE SWAP1 KECCAK256 SLOAD DUP2 JUMP JUMPDEST PUSH2 0x244 PUSH2 0x7CD JUMP JUMPDEST PUSH2 0x244 PUSH2 0xB63 JUMP JUMPDEST PUSH2 0x244 PUSH2 0x38C CALLDATASIZE PUSH1 0x4 PUSH2 0x2137 JUMP JUMPDEST PUSH2 0xB99 JUMP JUMPDEST PUSH1 0x4 SLOAD PUSH2 0x26C SWAP1 PUSH2 0x100 SWAP1 DIV PUSH1 0x1 PUSH1 0x1 PUSH1 0xA0 SHL SUB AND DUP2 JUMP JUMPDEST PUSH1 0x4 SLOAD PUSH2 0x3B6 SWAP1 PUSH1 0xFF AND DUP2 JUMP JUMPDEST PUSH1 0x40 MLOAD PUSH2 0x228 SWAP2 SWAP1 PUSH2 0x2180 JUMP JUMPDEST PUSH2 0x244 PUSH2 0x3D1 CALLDATASIZE PUSH1 0x4 PUSH2 0x2115 JUMP JUMPDEST PUSH2 0xBF1 JUMP JUMPDEST PUSH1 0x1 SLOAD PUSH1 0x1 PUSH1 0x1 PUSH1 0xA0 SHL SUB AND PUSH2 0x26C JUMP JUMPDEST PUSH2 0x244 PUSH2 0x3F5 CALLDATASIZE PUSH1 0x4 PUSH2 0x21A8 JUMP JUMPDEST PUSH2 0xC6C JUMP JUMPDEST PUSH2 0x26C PUSH2 0x408 CALLDATASIZE PUSH1 0x4 PUSH2 0x20D2 JUMP JUMPDEST PUSH2 0xCEE JUMP JUMPDEST PUSH2 0x244 PUSH2 0x41B CALLDATASIZE PUSH1 0x4 PUSH2 0x2115 JUMP JUMPDEST PUSH2 0xD26 JUMP JUMPDEST PUSH2 0x244 PUSH2 0x42E CALLDATASIZE PUSH1 0x4 PUSH2 0x21CA JUMP JUMPDEST PUSH2 0xDA2 JUMP JUMPDEST PUSH2 0x26C PUSH2 0x441 CALLDATASIZE PUSH1 0x4 PUSH2 0x2115 JUMP JUMPDEST PUSH2 0x1054 JUMP JUMPDEST PUSH2 0x26C PUSH2 0x454 CALLDATASIZE PUSH1 0x4 PUSH2 0x2115 JUMP JUMPDEST PUSH1 0x7 PUSH1 0x20 MSTORE PUSH1 0x0 SWAP1 DUP2 MSTORE PUSH1 0x40 SWAP1 KECCAK256 SLOAD PUSH1 0x1 PUSH1 0x1 PUSH1 0xA0 SHL SUB AND DUP2 JUMP JUMPDEST PUSH2 0x21E PUSH2 0x47D CALLDATASIZE PUSH1 0x4 PUSH2 0x2115 JUMP JUMPDEST PUSH1 0xC PUSH1 0x20 MSTORE PUSH1 0x0 SWAP1 DUP2 MSTORE PUSH1 0x40 SWAP1 KECCAK256 SLOAD DUP2 JUMP JUMPDEST PUSH2 0x244 PUSH2 0x13E5 JUMP JUMPDEST PUSH2 0x4AA PUSH2 0x4A5 CALLDATASIZE PUSH1 0x4 PUSH2 0x2115 JUMP JUMPDEST PUSH2 0x1489 JUMP JUMPDEST PUSH1 0x40 MLOAD SWAP1 ISZERO ISZERO DUP2 MSTORE PUSH1 0x20 ADD PUSH2 0x228 JUMP JUMPDEST PUSH2 0x21E PUSH1 0x3 SLOAD DUP2 JUMP JUMPDEST PUSH2 0x4D6 PUSH2 0x4D1 CALLDATASIZE PUSH1 0x4 PUSH2 0x2115 JUMP JUMPDEST PUSH2 0x14E6 JUMP JUMPDEST PUSH1 0x40 DUP1 MLOAD SWAP3 DUP4 MSTORE PUSH1 0x20 DUP4 ADD SWAP2 SWAP1 SWAP2 MSTORE ADD PUSH2 0x228 JUMP JUMPDEST PUSH2 0x244 PUSH2 0x4F9 CALLDATASIZE PUSH1 0x4 PUSH2 0x21CA JUMP JUMPDEST PUSH2 0x15E7 JUMP JUMPDEST PUSH2 0x244 PUSH2 0x50C CALLDATASIZE PUSH1 0x4 PUSH2 0x2115 JUMP JUMPDEST PUSH2 0x19A6 JUMP JUMPDEST PUSH1 0x5 SLOAD PUSH2 0x26C SWAP1 PUSH1 0x1 PUSH1 0x1 PUSH1 0xA0 SHL SUB AND DUP2 JUMP JUMPDEST PUSH1 0xD PUSH1 0x20 MSTORE DUP2 PUSH1 0x0 MSTORE PUSH1 0x40 PUSH1 0x0 KECCAK256 DUP2 DUP2 SLOAD DUP2 LT PUSH2 0x540 JUMPI PUSH1 0x0 DUP1 REVERT JUMPDEST SWAP1 PUSH1 0x0 MSTORE PUSH1 0x20 PUSH1 0x0 KECCAK256 ADD PUSH1 0x0 SWAP2 POP SWAP2 POP POP SLOAD DUP2 JUMP JUMPDEST PUSH1 0x1 SLOAD PUSH1 0x1 PUSH1 0x1 PUSH1 0xA0 SHL SUB AND CALLER EQ PUSH2 0x588 JUMPI PUSH1 0x40 MLOAD PUSH3 0x461BCD PUSH1 0xE5 SHL DUP2 MSTORE PUSH1 0x4 ADD PUSH2 0x57F SWAP1 PUSH2 0x21ED JUMP JUMPDEST PUSH1 0x40 MLOAD DUP1 SWAP2 SUB SWAP1 REVERT JUMPDEST PUSH1 0x5 SLOAD PUSH1 0x40 MLOAD PUSH4 0xA9059CBB PUSH1 0xE0 SHL DUP2 MSTORE CALLER PUSH1 0x4 DUP3 ADD MSTORE PUSH1 0x24 DUP2 ADD DUP4 SWAP1 MSTORE PUSH1 0x1 PUSH1 0x1 PUSH1 0xA0 SHL SUB SWAP1 SWAP2 AND SWAP1 PUSH4 0xA9059CBB SWAP1 PUSH1 0x44 ADD PUSH1 0x20 PUSH1 0x40 MLOAD DUP1 DUP4 SUB DUP2 PUSH1 0x0 DUP8 GAS CALL ISZERO DUP1 ISZERO PUSH2 0x5D9 JUMPI RETURNDATASIZE PUSH1 0x0 DUP1 RETURNDATACOPY RETURNDATASIZE PUSH1 0x0 REVERT JUMPDEST POP POP POP POP PUSH1 0x40 MLOAD RETURNDATASIZE PUSH1 0x1F NOT PUSH1 0x1F DUP3 ADD AND DUP3 ADD DUP1 PUSH1 0x40 MSTORE POP DUP2 ADD SWAP1 PUSH2 0x5FD SWAP2 SWAP1 PUSH2 0x2222 JUMP JUMPDEST POP POP JUMP JUMPDEST PUSH1 0x1 PUSH1 0x1 PUSH1 0xA0 SHL SUB DUP2 AND PUSH1 0x0 SWAP1 DUP2 MSTORE PUSH1 0x6 PUSH1 0x20 SWAP1 DUP2 MSTORE PUSH1 0x40 DUP3 KECCAK256 CALLER DUP4 MSTORE SWAP1 MSTORE PUSH1 0x0 DUP1 PUSH2 0x62C DUP5 PUSH2 0x14E6 JUMP JUMPDEST SWAP1 SWAP3 POP SWAP1 POP PUSH2 0x63C DUP2 PUSH1 0xA PUSH2 0x233E JUMP JUMPDEST PUSH1 0x1 PUSH1 0x1 PUSH1 0xA0 SHL SUB DUP6 AND PUSH1 0x0 SWAP1 DUP2 MSTORE PUSH1 0x6 PUSH1 0x20 SWAP1 DUP2 MSTORE PUSH1 0x40 DUP1 DUP4 KECCAK256 CALLER DUP5 MSTORE SWAP1 SWAP2 MSTORE SWAP1 KECCAK256 SLOAD PUSH2 0x66B SWAP1 DUP5 SWAP1 PUSH2 0x234A JUMP JUMPDEST PUSH2 0x675 SWAP2 SWAP1 PUSH2 0x237F JUMP JUMPDEST SWAP5 SWAP4 POP POP POP POP JUMP JUMPDEST PUSH1 0x1 SLOAD PUSH1 0x1 PUSH1 0x1 PUSH1 0xA0 SHL SUB AND CALLER EQ PUSH2 0x6A7 JUMPI PUSH1 0x40 MLOAD PUSH3 0x461BCD PUSH1 0xE5 SHL DUP2 MSTORE PUSH1 0x4 ADD PUSH2 0x57F SWAP1 PUSH2 0x21ED JUMP JUMPDEST PUSH1 0x0 JUMPDEST PUSH1 0x1 PUSH1 0x1 PUSH1 0xA0 SHL SUB DUP3 AND PUSH1 0x0 SWAP1 DUP2 MSTORE PUSH1 0x8 PUSH1 0x20 MSTORE PUSH1 0x40 SWAP1 KECCAK256 SLOAD DUP2 LT ISZERO PUSH2 0x5FD JUMPI PUSH1 0x1 PUSH1 0x1 PUSH1 0xA0 SHL SUB DUP3 AND PUSH1 0x0 SWAP1 DUP2 MSTORE PUSH1 0x8 PUSH1 0x20 MSTORE PUSH1 0x40 DUP2 KECCAK256 DUP1 SLOAD DUP4 SWAP1 DUP2 LT PUSH2 0x6F4 JUMPI PUSH2 0x6F4 PUSH2 0x2393 JUMP JUMPDEST PUSH1 0x0 SWAP2 DUP3 MSTORE PUSH1 0x20 DUP3 KECCAK256 ADD SLOAD PUSH1 0x1 PUSH1 0x1 PUSH1 0xA0 SHL SUB AND SWAP2 POP PUSH2 0x714 DUP3 DUP6 PUSH2 0x1A41 JUMP JUMPDEST PUSH1 0x5 SLOAD PUSH1 0x40 MLOAD PUSH4 0xA9059CBB PUSH1 0xE0 SHL DUP2 MSTORE PUSH1 0x1 PUSH1 0x1 PUSH1 0xA0 SHL SUB DUP6 DUP2 AND PUSH1 0x4 DUP4 ADD MSTORE PUSH1 0x24 DUP3 ADD DUP5 SWAP1 MSTORE SWAP3 SWAP4 POP SWAP2 AND SWAP1 PUSH4 0xA9059CBB SWAP1 PUSH1 0x44 ADD PUSH1 0x20 PUSH1 0x40 MLOAD DUP1 DUP4 SUB DUP2 PUSH1 0x0 DUP8 GAS CALL ISZERO DUP1 ISZERO PUSH2 0x769 JUMPI RETURNDATASIZE PUSH1 0x0 DUP1 RETURNDATACOPY RETURNDATASIZE PUSH1 0x0 REVERT JUMPDEST POP POP POP POP PUSH1 0x40 MLOAD RETURNDATASIZE PUSH1 0x1F NOT PUSH1 0x1F DUP3 ADD AND DUP3 ADD DUP1 PUSH1 0x40 MSTORE POP DUP2 ADD SWAP1 PUSH2 0x78D SWAP2 SWAP1 PUSH2 0x2222 JUMP JUMPDEST POP POP POP DUP1 DUP1 PUSH2 0x79B SWAP1 PUSH2 0x23A9 JUMP JUMPDEST SWAP2 POP POP PUSH2 0x6AA JUMP JUMPDEST PUSH1 0x9 DUP2 DUP2 SLOAD DUP2 LT PUSH2 0x7B3 JUMPI PUSH1 0x0 DUP1 REVERT JUMPDEST PUSH1 0x0 SWAP2 DUP3 MSTORE PUSH1 0x20 SWAP1 SWAP2 KECCAK256 ADD SLOAD PUSH1 0x1 PUSH1 0x1 PUSH1 0xA0 SHL SUB AND SWAP1 POP DUP2 JUMP JUMPDEST PUSH1 0x1 SLOAD PUSH1 0x1 PUSH1 0x1 PUSH1 0xA0 SHL SUB AND CALLER EQ PUSH2 0x7F7 JUMPI PUSH1 0x40 MLOAD PUSH3 0x461BCD PUSH1 0xE5 SHL DUP2 MSTORE PUSH1 0x4 ADD PUSH2 0x57F SWAP1 PUSH2 0x21ED JUMP JUMPDEST PUSH1 0x2 PUSH1 0x4 SLOAD PUSH1 0xFF AND PUSH1 0x2 DUP2 GT ISZERO PUSH2 0x810 JUMPI PUSH2 0x810 PUSH2 0x216A JUMP JUMPDEST EQ PUSH2 0x855 JUMPI PUSH1 0x40 MLOAD PUSH3 0x461BCD PUSH1 0xE5 SHL DUP2 MSTORE PUSH1 0x20 PUSH1 0x4 DUP3 ADD MSTORE PUSH1 0x15 PUSH1 0x24 DUP3 ADD MSTORE PUSH21 0x596F75206172656E27742074686572652079657421 PUSH1 0x58 SHL PUSH1 0x44 DUP3 ADD MSTORE PUSH1 0x64 ADD PUSH2 0x57F JUMP JUMPDEST PUSH1 0x10 SLOAD PUSH2 0x86A SWAP1 PUSH1 0x1 PUSH1 0x1 PUSH1 0xA0 SHL SUB AND PUSH2 0x1489 JUMP JUMPDEST PUSH2 0x8B2 JUMPI PUSH1 0x40 MLOAD PUSH3 0x461BCD PUSH1 0xE5 SHL DUP2 MSTORE PUSH1 0x20 PUSH1 0x4 DUP3 ADD MSTORE PUSH1 0x19 PUSH1 0x24 DUP3 ADD MSTORE PUSH25 0x151A1A5CC81D1BDAD95B881A5CC81B9BDD08185B1B1BDDD959 PUSH1 0x3A SHL PUSH1 0x44 DUP3 ADD MSTORE PUSH1 0x64 ADD PUSH2 0x57F JUMP JUMPDEST PUSH1 0x10 SLOAD PUSH1 0x1 PUSH1 0x1 PUSH1 0xA0 SHL SUB SWAP1 DUP2 AND PUSH1 0x0 SWAP1 DUP2 MSTORE PUSH1 0xE PUSH1 0x20 MSTORE PUSH1 0x40 SWAP1 KECCAK256 SLOAD AND PUSH2 0x92E JUMPI PUSH1 0x40 MLOAD PUSH3 0x461BCD PUSH1 0xE5 SHL DUP2 MSTORE PUSH1 0x20 PUSH1 0x4 DUP3 ADD MSTORE PUSH1 0x29 PUSH1 0x24 DUP3 ADD MSTORE PUSH32 0x5374696C6C20646F65736E2774206B6E6F7720776869636820706C6179657220 PUSH1 0x44 DUP3 ADD MSTORE PUSH9 0x34B9903BB4B73732B9 PUSH1 0xB9 SHL PUSH1 0x64 DUP3 ADD MSTORE PUSH1 0x84 ADD PUSH2 0x57F JUMP JUMPDEST PUSH1 0x10 SLOAD PUSH1 0x1 PUSH1 0x1 PUSH1 0xA0 SHL SUB SWAP1 DUP2 AND PUSH1 0x0 DUP2 DUP2 MSTORE PUSH1 0xE PUSH1 0x20 SWAP1 DUP2 MSTORE PUSH1 0x40 DUP1 DUP4 KECCAK256 SLOAD PUSH1 0xA SWAP1 SWAP3 MSTORE SWAP2 DUP3 SWAP1 KECCAK256 SLOAD SWAP2 MLOAD PUSH4 0x23B872DD PUSH1 0xE0 SHL DUP2 MSTORE CALLER PUSH1 0x4 DUP3 ADD MSTORE SWAP4 AND PUSH1 0x24 DUP5 ADD MSTORE PUSH1 0x44 DUP4 ADD MSTORE SWAP1 PUSH4 0x23B872DD SWAP1 PUSH1 0x64 ADD PUSH1 0x20 PUSH1 0x40 MLOAD DUP1 DUP4 SUB DUP2 PUSH1 0x0 DUP8 GAS CALL ISZERO DUP1 ISZERO PUSH2 0x99F JUMPI RETURNDATASIZE PUSH1 0x0 DUP1 RETURNDATACOPY RETURNDATASIZE PUSH1 0x0 REVERT JUMPDEST POP POP POP POP PUSH1 0x40 MLOAD RETURNDATASIZE PUSH1 0x1F NOT PUSH1 0x1F DUP3 ADD AND DUP3 ADD DUP1 PUSH1 0x40 MSTORE POP DUP2 ADD SWAP1 PUSH2 0x9C3 SWAP2 SWAP1 PUSH2 0x2222 JUMP JUMPDEST POP PUSH1 0x10 SLOAD PUSH1 0x1 PUSH1 0x1 PUSH1 0xA0 SHL SUB AND PUSH1 0x0 SWAP1 DUP2 MSTORE PUSH1 0xA PUSH1 0x20 MSTORE PUSH1 0x40 DUP2 KECCAK256 DUP2 SWAP1 SSTORE JUMPDEST PUSH1 0x10 SLOAD PUSH1 0x1 PUSH1 0x1 PUSH1 0xA0 SHL SUB AND PUSH1 0x0 SWAP1 DUP2 MSTORE PUSH1 0x8 PUSH1 0x20 MSTORE PUSH1 0x40 SWAP1 KECCAK256 SLOAD DUP2 LT ISZERO PUSH2 0xA8E JUMPI PUSH1 0x10 SLOAD PUSH1 0x1 PUSH1 0x1 PUSH1 0xA0 SHL SUB AND PUSH1 0x0 SWAP1 DUP2 MSTORE PUSH1 0x8 PUSH1 0x20 MSTORE PUSH1 0x40 DUP2 KECCAK256 DUP1 SLOAD DUP4 SWAP1 DUP2 LT PUSH2 0xA30 JUMPI PUSH2 0xA30 PUSH2 0x2393 JUMP JUMPDEST PUSH1 0x0 SWAP2 DUP3 MSTORE PUSH1 0x20 DUP1 DUP4 KECCAK256 SWAP1 SWAP2 ADD SLOAD PUSH1 0x10 DUP1 SLOAD PUSH1 0x1 PUSH1 0x1 PUSH1 0xA0 SHL SUB SWAP1 DUP2 AND DUP6 MSTORE PUSH1 0x6 DUP5 MSTORE PUSH1 0x40 DUP1 DUP7 KECCAK256 SWAP4 DUP3 AND DUP1 DUP8 MSTORE SWAP4 DUP6 MSTORE DUP1 DUP7 KECCAK256 DUP7 SWAP1 SSTORE SWAP2 SLOAD AND DUP5 MSTORE PUSH1 0xB DUP4 MSTORE DUP1 DUP5 KECCAK256 SWAP2 DUP5 MSTORE SWAP2 MSTORE DUP2 KECCAK256 SSTORE POP DUP1 PUSH2 0xA86 DUP2 PUSH2 0x23A9 JUMP JUMPDEST SWAP2 POP POP PUSH2 0x9E2 JUMP JUMPDEST POP PUSH1 0xF DUP1 SLOAD PUSH1 0x1 PUSH1 0x1 PUSH1 0xA0 SHL SUB NOT AND SWAP1 SSTORE PUSH1 0x10 DUP1 SLOAD PUSH1 0x1 PUSH1 0x1 PUSH1 0xA0 SHL SUB SWAP1 DUP2 AND PUSH1 0x0 SWAP1 DUP2 MSTORE PUSH1 0xC PUSH1 0x20 SWAP1 DUP2 MSTORE PUSH1 0x40 DUP1 DUP4 KECCAK256 DUP4 SWAP1 SSTORE DUP1 MLOAD DUP4 DUP2 MSTORE DUP1 DUP4 ADD DUP1 DUP4 MSTORE SWAP6 SLOAD SWAP1 SWAP5 AND DUP4 MSTORE PUSH1 0x8 SWAP1 SWAP2 MSTORE SWAP1 KECCAK256 SWAP1 MLOAD PUSH2 0xAE7 SWAP3 SWAP1 PUSH2 0x2006 JUMP JUMPDEST POP PUSH1 0x40 DUP1 MLOAD PUSH1 0x0 DUP1 DUP3 MSTORE PUSH1 0x20 DUP1 DUP4 ADD DUP1 DUP6 MSTORE PUSH1 0x10 SLOAD PUSH1 0x1 PUSH1 0x1 PUSH1 0xA0 SHL SUB AND DUP4 MSTORE PUSH1 0xD SWAP1 SWAP2 MSTORE SWAP3 SWAP1 KECCAK256 SWAP1 MLOAD PUSH2 0xB1B SWAP3 SWAP1 PUSH2 0x206B JUMP JUMPDEST POP PUSH1 0x10 DUP1 SLOAD PUSH1 0x1 PUSH1 0x1 PUSH1 0xA0 SHL SUB AND PUSH1 0x0 SWAP1 DUP2 MSTORE PUSH1 0xE PUSH1 0x20 MSTORE PUSH1 0x40 SWAP1 KECCAK256 DUP1 SLOAD PUSH1 0x1 PUSH1 0x1 PUSH1 0xA0 SHL SUB NOT SWAP1 DUP2 AND SWAP1 SWAP2 SSTORE DUP2 SLOAD AND SWAP1 SSTORE PUSH1 0x4 DUP1 SLOAD PUSH1 0x1 SWAP2 SWAP1 PUSH1 0xFF NOT AND DUP3 DUP1 JUMPDEST MUL OR SWAP1 SSTORE POP JUMP JUMPDEST PUSH1 0x1 SLOAD PUSH1 0x1 PUSH1 0x1 PUSH1 0xA0 SHL SUB AND CALLER EQ PUSH2 0xB8D JUMPI PUSH1 0x40 MLOAD PUSH3 0x461BCD PUSH1 0xE5 SHL DUP2 MSTORE PUSH1 0x4 ADD PUSH2 0x57F SWAP1 PUSH2 0x21ED JUMP JUMPDEST PUSH2 0xB97 PUSH1 0x0 PUSH2 0x1AC7 JUMP JUMPDEST JUMP JUMPDEST PUSH1 0x1 SLOAD PUSH1 0x1 PUSH1 0x1 PUSH1 0xA0 SHL SUB AND CALLER EQ PUSH2 0xBC3 JUMPI PUSH1 0x40 MLOAD PUSH3 0x461BCD PUSH1 0xE5 SHL DUP2 MSTORE PUSH1 0x4 ADD PUSH2 0x57F SWAP1 PUSH2 0x21ED JUMP JUMPDEST PUSH1 0x1 PUSH1 0x1 PUSH1 0xA0 SHL SUB SWAP2 DUP3 AND PUSH1 0x0 SWAP1 DUP2 MSTORE PUSH1 0x7 PUSH1 0x20 MSTORE PUSH1 0x40 SWAP1 KECCAK256 DUP1 SLOAD PUSH1 0x1 PUSH1 0x1 PUSH1 0xA0 SHL SUB NOT AND SWAP2 SWAP1 SWAP3 AND OR SWAP1 SSTORE JUMP JUMPDEST PUSH1 0x4 DUP1 SLOAD PUSH1 0x2 PUSH1 0xFF NOT SWAP1 SWAP2 AND DUP2 OR SWAP1 SWAP2 SSTORE PUSH1 0xF DUP1 SLOAD PUSH1 0x1 PUSH1 0x1 PUSH1 0xA0 SHL SUB NOT AND PUSH1 0x1 PUSH1 0x1 PUSH1 0xA0 SHL SUB DUP5 AND OR SWAP1 SSTORE SLOAD PUSH1 0x3 SLOAD PUSH1 0x0 SWAP2 PUSH2 0xC2D SWAP2 PUSH2 0x1B19 JUMP JUMPDEST SWAP1 POP PUSH32 0xE5F5B44D72D4143C278EB745C4ACC0695C4A5BC616BE5BEECF46ABE29661780E DUP2 PUSH1 0x40 MLOAD PUSH2 0xC60 SWAP2 DUP2 MSTORE PUSH1 0x20 ADD SWAP1 JUMP JUMPDEST PUSH1 0x40 MLOAD DUP1 SWAP2 SUB SWAP1 LOG1 POP POP JUMP JUMPDEST CALLER PUSH1 0x1 PUSH1 0x1 PUSH1 0xA0 SHL SUB PUSH32 0x0 AND EQ PUSH2 0xCE4 JUMPI PUSH1 0x40 MLOAD PUSH3 0x461BCD PUSH1 0xE5 SHL DUP2 MSTORE PUSH1 0x20 PUSH1 0x4 DUP3 ADD MSTORE PUSH1 0x1F PUSH1 0x24 DUP3 ADD MSTORE PUSH32 0x4F6E6C7920565246436F6F7264696E61746F722063616E2066756C66696C6C00 PUSH1 0x44 DUP3 ADD MSTORE PUSH1 0x64 ADD PUSH2 0x57F JUMP JUMPDEST PUSH2 0x5FD DUP3 DUP3 PUSH2 0x1C90 JUMP JUMPDEST PUSH1 0x8 PUSH1 0x20 MSTORE DUP2 PUSH1 0x0 MSTORE PUSH1 0x40 PUSH1 0x0 KECCAK256 DUP2 DUP2 SLOAD DUP2 LT PUSH2 0xD0A JUMPI PUSH1 0x0 DUP1 REVERT JUMPDEST PUSH1 0x0 SWAP2 DUP3 MSTORE PUSH1 0x20 SWAP1 SWAP2 KECCAK256 ADD SLOAD PUSH1 0x1 PUSH1 0x1 PUSH1 0xA0 SHL SUB AND SWAP2 POP DUP3 SWAP1 POP JUMP JUMPDEST PUSH1 0x1 SLOAD PUSH1 0x1 PUSH1 0x1 PUSH1 0xA0 SHL SUB AND CALLER EQ PUSH2 0xD50 JUMPI PUSH1 0x40 MLOAD PUSH3 0x461BCD PUSH1 0xE5 SHL DUP2 MSTORE PUSH1 0x4 ADD PUSH2 0x57F SWAP1 PUSH2 0x21ED JUMP JUMPDEST PUSH1 0x9 DUP1 SLOAD PUSH1 0x1 DUP2 ADD DUP3 SSTORE PUSH1 0x0 SWAP2 SWAP1 SWAP2 MSTORE PUSH32 0x6E1540171B6C0C960B71A7020D9F60077F6AF931A8BBF590DA0223DACF75C7AF ADD DUP1 SLOAD PUSH1 0x1 PUSH1 0x1 PUSH1 0xA0 SHL SUB NOT AND PUSH1 0x1 PUSH1 0x1 PUSH1 0xA0 SHL SUB SWAP3 SWAP1 SWAP3 AND SWAP2 SWAP1 SWAP2 OR SWAP1 SSTORE JUMP JUMPDEST PUSH1 0x0 PUSH1 0x4 SLOAD PUSH1 0xFF AND PUSH1 0x2 DUP2 GT ISZERO PUSH2 0xDBB JUMPI PUSH2 0xDBB PUSH2 0x216A JUMP JUMPDEST EQ DUP1 PUSH2 0xDDD JUMPI POP PUSH1 0x1 PUSH1 0x4 SLOAD PUSH1 0xFF AND PUSH1 0x2 DUP2 GT ISZERO PUSH2 0xDDB JUMPI PUSH2 0xDDB PUSH2 0x216A JUMP JUMPDEST EQ JUMPDEST PUSH2 0xE3E JUMPI PUSH1 0x40 MLOAD PUSH3 0x461BCD PUSH1 0xE5 SHL DUP2 MSTORE PUSH1 0x20 PUSH1 0x4 DUP3 ADD MSTORE PUSH1 0x2C PUSH1 0x24 DUP3 ADD MSTORE PUSH32 0x596F752063616E2774206765742074686520726566756E642061667465722067 PUSH1 0x44 DUP3 ADD MSTORE PUSH12 0x616D65207374617274656421 PUSH1 0xA0 SHL PUSH1 0x64 DUP3 ADD MSTORE PUSH1 0x84 ADD PUSH2 0x57F JUMP JUMPDEST PUSH1 0x1 PUSH1 0x1 PUSH1 0xA0 SHL SUB DUP2 AND PUSH1 0x0 SWAP1 DUP2 MSTORE PUSH1 0x6 PUSH1 0x20 SWAP1 DUP2 MSTORE PUSH1 0x40 DUP1 DUP4 KECCAK256 CALLER DUP5 MSTORE SWAP1 SWAP2 MSTORE SWAP1 KECCAK256 SLOAD DUP3 GT ISZERO PUSH2 0xEBD JUMPI PUSH1 0x40 MLOAD PUSH3 0x461BCD PUSH1 0xE5 SHL DUP2 MSTORE PUSH1 0x20 PUSH1 0x4 DUP3 ADD MSTORE PUSH1 0x23 PUSH1 0x24 DUP3 ADD MSTORE PUSH32 0x596F75206469646E27742062657420746F6B656E206F662074686520616D6F75 PUSH1 0x44 DUP3 ADD MSTORE PUSH3 0x6E7421 PUSH1 0xE8 SHL PUSH1 0x64 DUP3 ADD MSTORE PUSH1 0x84 ADD PUSH2 0x57F JUMP JUMPDEST PUSH1 0x1 PUSH1 0x1 PUSH1 0xA0 SHL SUB DUP2 AND PUSH1 0x0 SWAP1 DUP2 MSTORE PUSH1 0xB PUSH1 0x20 SWAP1 DUP2 MSTORE PUSH1 0x40 DUP1 DUP4 KECCAK256 CALLER DUP5 MSTORE SWAP1 SWAP2 MSTORE SWAP1 KECCAK256 SLOAD ISZERO PUSH2 0xF3C JUMPI PUSH1 0x40 MLOAD PUSH3 0x461BCD PUSH1 0xE5 SHL DUP2 MSTORE PUSH1 0x20 PUSH1 0x4 DUP3 ADD MSTORE PUSH1 0x25 PUSH1 0x24 DUP3 ADD MSTORE PUSH32 0x596F75206472657720796F757220636172642C20796F752063616E2774207265 PUSH1 0x44 DUP3 ADD MSTORE PUSH5 0x66756E6421 PUSH1 0xD8 SHL PUSH1 0x64 DUP3 ADD MSTORE PUSH1 0x84 ADD PUSH2 0x57F JUMP JUMPDEST PUSH1 0x40 MLOAD PUSH4 0xA9059CBB PUSH1 0xE0 SHL DUP2 MSTORE CALLER PUSH1 0x4 DUP3 ADD MSTORE PUSH1 0x24 DUP2 ADD DUP4 SWAP1 MSTORE PUSH1 0x1 PUSH1 0x1 PUSH1 0xA0 SHL SUB DUP3 AND SWAP1 PUSH4 0xA9059CBB SWAP1 PUSH1 0x44 ADD PUSH1 0x20 PUSH1 0x40 MLOAD DUP1 DUP4 SUB DUP2 PUSH1 0x0 DUP8 GAS CALL ISZERO DUP1 ISZERO PUSH2 0xF89 JUMPI RETURNDATASIZE PUSH1 0x0 DUP1 RETURNDATACOPY RETURNDATASIZE PUSH1 0x0 REVERT JUMPDEST POP POP POP POP PUSH1 0x40 MLOAD RETURNDATASIZE PUSH1 0x1F NOT PUSH1 0x1F DUP3 ADD AND DUP3 ADD DUP1 PUSH1 0x40 MSTORE POP DUP2 ADD SWAP1 PUSH2 0xFAD SWAP2 SWAP1 PUSH2 0x2222 JUMP JUMPDEST POP PUSH1 0x1 PUSH1 0x1 PUSH1 0xA0 SHL SUB DUP2 AND PUSH1 0x0 SWAP1 DUP2 MSTORE PUSH1 0x6 PUSH1 0x20 SWAP1 DUP2 MSTORE PUSH1 0x40 DUP1 DUP4 KECCAK256 CALLER DUP5 MSTORE SWAP1 SWAP2 MSTORE SWAP1 KECCAK256 SLOAD PUSH2 0xFDD SWAP1 DUP4 SWAP1 PUSH2 0x23C4 JUMP JUMPDEST PUSH1 0x1 PUSH1 0x1 PUSH1 0xA0 SHL SUB DUP3 AND PUSH1 0x0 DUP2 DUP2 MSTORE PUSH1 0x6 PUSH1 0x20 SWAP1 DUP2 MSTORE PUSH1 0x40 DUP1 DUP4 KECCAK256 CALLER DUP5 MSTORE DUP3 MSTORE DUP1 DUP4 KECCAK256 SWAP5 SWAP1 SWAP5 SSTORE SWAP2 DUP2 MSTORE PUSH1 0xA SWAP1 SWAP2 MSTORE KECCAK256 SLOAD PUSH2 0x1019 SWAP1 DUP4 SWAP1 PUSH2 0x23C4 JUMP JUMPDEST PUSH1 0x1 PUSH1 0x1 PUSH1 0xA0 SHL SUB DUP3 AND PUSH1 0x0 SWAP1 DUP2 MSTORE PUSH1 0xA PUSH1 0x20 SWAP1 DUP2 MSTORE PUSH1 0x40 DUP1 DUP4 KECCAK256 SWAP4 SWAP1 SWAP4 SSTORE PUSH1 0x6 DUP2 MSTORE DUP3 DUP3 KECCAK256 CALLER DUP4 MSTORE SWAP1 MSTORE KECCAK256 SLOAD PUSH2 0x5FD JUMPI PUSH2 0x5FD DUP2 CALLER PUSH2 0x1E07 JUMP JUMPDEST PUSH1 0x1 SLOAD PUSH1 0x0 SWAP1 PUSH1 0x1 PUSH1 0x1 PUSH1 0xA0 SHL SUB AND CALLER EQ PUSH2 0x1081 JUMPI PUSH1 0x40 MLOAD PUSH3 0x461BCD PUSH1 0xE5 SHL DUP2 MSTORE PUSH1 0x4 ADD PUSH2 0x57F SWAP1 PUSH2 0x21ED JUMP JUMPDEST PUSH1 0x2 PUSH1 0x4 SLOAD PUSH1 0xFF AND PUSH1 0x2 DUP2 GT ISZERO PUSH2 0x109A JUMPI PUSH2 0x109A PUSH2 0x216A JUMP JUMPDEST EQ PUSH2 0x10DF JUMPI PUSH1 0x40 MLOAD PUSH3 0x461BCD PUSH1 0xE5 SHL DUP2 MSTORE PUSH1 0x20 PUSH1 0x4 DUP3 ADD MSTORE PUSH1 0x15 PUSH1 0x24 DUP3 ADD MSTORE PUSH21 0x47616D65206973206E6F74206F7665722079657421 PUSH1 0x58 SHL PUSH1 0x44 DUP3 ADD MSTORE PUSH1 0x64 ADD PUSH2 0x57F JUMP JUMPDEST PUSH1 0x10 SLOAD PUSH1 0x1 PUSH1 0x1 PUSH1 0xA0 SHL SUB AND ISZERO PUSH2 0x1160 JUMPI PUSH1 0x40 DUP1 MLOAD PUSH3 0x461BCD PUSH1 0xE5 SHL DUP2 MSTORE PUSH1 0x20 PUSH1 0x4 DUP3 ADD MSTORE PUSH1 0x24 DUP2 ADD SWAP2 SWAP1 SWAP2 MSTORE PUSH32 0x4265666F72652067616D65206973206E6F74206F766572207965742C206F776E PUSH1 0x44 DUP3 ADD MSTORE PUSH32 0x6572206861766520746F207061792072657761726420746F2077696E6E657221 PUSH1 0x64 DUP3 ADD MSTORE PUSH1 0x84 ADD PUSH2 0x57F JUMP JUMPDEST PUSH2 0x1169 DUP3 PUSH2 0x1F6F JUMP JUMPDEST PUSH2 0x11C4 JUMPI PUSH1 0x40 MLOAD PUSH3 0x461BCD PUSH1 0xE5 SHL DUP2 MSTORE PUSH1 0x20 PUSH1 0x4 DUP3 ADD MSTORE PUSH1 0x26 PUSH1 0x24 DUP3 ADD MSTORE PUSH32 0x416C6C207061727469636970616E7473206E6565647320746F20647261772061 PUSH1 0x44 DUP3 ADD MSTORE PUSH6 0x206361726421 PUSH1 0xD0 SHL PUSH1 0x64 DUP3 ADD MSTORE PUSH1 0x84 ADD PUSH2 0x57F JUMP JUMPDEST PUSH1 0x0 DUP1 JUMPDEST PUSH1 0x1 PUSH1 0x1 PUSH1 0xA0 SHL SUB DUP5 AND PUSH1 0x0 SWAP1 DUP2 MSTORE PUSH1 0xD PUSH1 0x20 MSTORE PUSH1 0x40 SWAP1 KECCAK256 SLOAD DUP2 LT ISZERO PUSH2 0x13AC JUMPI PUSH1 0x1 PUSH1 0x1 PUSH1 0xA0 SHL SUB DUP5 AND PUSH1 0x0 SWAP1 DUP2 MSTORE PUSH1 0xD PUSH1 0x20 MSTORE PUSH1 0x40 SWAP1 KECCAK256 DUP1 SLOAD DUP4 SWAP2 SWAP1 DUP4 SWAP1 DUP2 LT PUSH2 0x1215 JUMPI PUSH2 0x1215 PUSH2 0x2393 JUMP JUMPDEST SWAP1 PUSH1 0x0 MSTORE PUSH1 0x20 PUSH1 0x0 KECCAK256 ADD SLOAD GT ISZERO PUSH2 0x12D0 JUMPI PUSH1 0x1 PUSH1 0x1 PUSH1 0xA0 SHL SUB DUP5 AND PUSH1 0x0 SWAP1 DUP2 MSTORE PUSH1 0xD PUSH1 0x20 MSTORE PUSH1 0x40 SWAP1 KECCAK256 DUP1 SLOAD DUP3 SWAP1 DUP2 LT PUSH2 0x1250 JUMPI PUSH2 0x1250 PUSH2 0x2393 JUMP JUMPDEST SWAP1 PUSH1 0x0 MSTORE PUSH1 0x20 PUSH1 0x0 KECCAK256 ADD SLOAD SWAP2 POP PUSH1 0x8 PUSH1 0x0 DUP6 PUSH1 0x1 PUSH1 0x1 PUSH1 0xA0 SHL SUB AND PUSH1 0x1 PUSH1 0x1 PUSH1 0xA0 SHL SUB AND DUP2 MSTORE PUSH1 0x20 ADD SWAP1 DUP2 MSTORE PUSH1 0x20 ADD PUSH1 0x0 KECCAK256 DUP2 DUP2 SLOAD DUP2 LT PUSH2 0x1293 JUMPI PUSH2 0x1293 PUSH2 0x2393 JUMP JUMPDEST PUSH1 0x0 SWAP2 DUP3 MSTORE PUSH1 0x20 DUP1 DUP4 KECCAK256 SWAP1 SWAP2 ADD SLOAD PUSH1 0x1 PUSH1 0x1 PUSH1 0xA0 SHL SUB DUP8 DUP2 AND DUP5 MSTORE PUSH1 0xE SWAP1 SWAP3 MSTORE PUSH1 0x40 SWAP1 SWAP3 KECCAK256 DUP1 SLOAD PUSH1 0x1 PUSH1 0x1 PUSH1 0xA0 SHL SUB NOT AND SWAP2 SWAP1 SWAP3 AND OR SWAP1 SSTORE PUSH2 0x139A JUMP JUMPDEST PUSH1 0x1 PUSH1 0x1 PUSH1 0xA0 SHL SUB DUP5 AND PUSH1 0x0 SWAP1 DUP2 MSTORE PUSH1 0xD PUSH1 0x20 MSTORE PUSH1 0x40 SWAP1 KECCAK256 DUP1 SLOAD DUP4 SWAP2 SWAP1 DUP4 SWAP1 DUP2 LT PUSH2 0x12FD JUMPI PUSH2 0x12FD PUSH2 0x2393 JUMP JUMPDEST SWAP1 PUSH1 0x0 MSTORE PUSH1 0x20 PUSH1 0x0 KECCAK256 ADD SLOAD EQ ISZERO PUSH2 0x139A JUMPI PUSH1 0x0 PUSH2 0x131B PUSH1 0x2 DUP5 PUSH2 0x23DB JUMP JUMPDEST SWAP1 POP DUP1 PUSH2 0x1389 JUMPI PUSH1 0x1 PUSH1 0x1 PUSH1 0xA0 SHL SUB DUP6 AND PUSH1 0x0 SWAP1 DUP2 MSTORE PUSH1 0x8 PUSH1 0x20 MSTORE PUSH1 0x40 SWAP1 KECCAK256 DUP1 SLOAD DUP4 SWAP1 DUP2 LT PUSH2 0x134C JUMPI PUSH2 0x134C PUSH2 0x2393 JUMP JUMPDEST PUSH1 0x0 SWAP2 DUP3 MSTORE PUSH1 0x20 DUP1 DUP4 KECCAK256 SWAP1 SWAP2 ADD SLOAD PUSH1 0x1 PUSH1 0x1 PUSH1 0xA0 SHL SUB DUP9 DUP2 AND DUP5 MSTORE PUSH1 0xE SWAP1 SWAP3 MSTORE PUSH1 0x40 SWAP1 SWAP3 KECCAK256 DUP1 SLOAD PUSH1 0x1 PUSH1 0x1 PUSH1 0xA0 SHL SUB NOT AND SWAP2 SWAP1 SWAP3 AND OR SWAP1 SSTORE PUSH2 0x1398 JUMP JUMPDEST DUP1 PUSH1 0x1 EQ ISZERO PUSH2 0x1398 JUMPI POP PUSH2 0x139A JUMP JUMPDEST POP JUMPDEST DUP1 PUSH2 0x13A4 DUP2 PUSH2 0x23A9 JUMP JUMPDEST SWAP2 POP POP PUSH2 0x11C8 JUMP JUMPDEST POP POP PUSH1 0x10 DUP1 SLOAD PUSH1 0x1 PUSH1 0x1 PUSH1 0xA0 SHL SUB NOT AND PUSH1 0x1 PUSH1 0x1 PUSH1 0xA0 SHL SUB DUP5 DUP2 AND SWAP2 DUP3 OR SWAP1 SWAP3 SSTORE PUSH1 0x0 SWAP1 DUP2 MSTORE PUSH1 0xE PUSH1 0x20 MSTORE PUSH1 0x40 SWAP1 KECCAK256 SLOAD AND SWAP1 POP JUMPDEST SWAP2 SWAP1 POP JUMP JUMPDEST PUSH1 0x1 SLOAD PUSH1 0x1 PUSH1 0x1 PUSH1 0xA0 SHL SUB AND CALLER EQ PUSH2 0x140F JUMPI PUSH1 0x40 MLOAD PUSH3 0x461BCD PUSH1 0xE5 SHL DUP2 MSTORE PUSH1 0x4 ADD PUSH2 0x57F SWAP1 PUSH2 0x21ED JUMP JUMPDEST PUSH1 0x1 PUSH1 0x4 SLOAD PUSH1 0xFF AND PUSH1 0x2 DUP2 GT ISZERO PUSH2 0x1428 JUMPI PUSH2 0x1428 PUSH2 0x216A JUMP JUMPDEST EQ PUSH2 0x1475 JUMPI PUSH1 0x40 MLOAD PUSH3 0x461BCD PUSH1 0xE5 SHL DUP2 MSTORE PUSH1 0x20 PUSH1 0x4 DUP3 ADD MSTORE PUSH1 0x1F PUSH1 0x24 DUP3 ADD MSTORE PUSH32 0x43616E2774207374617274206E65772067616D65207374617465207965742100 PUSH1 0x44 DUP3 ADD MSTORE PUSH1 0x64 ADD PUSH2 0x57F JUMP JUMPDEST PUSH1 0x4 DUP1 SLOAD PUSH1 0x0 SWAP2 SWAP1 PUSH1 0xFF NOT AND PUSH1 0x1 DUP4 PUSH2 0xB5C JUMP JUMPDEST PUSH1 0x0 DUP1 PUSH1 0x9 SLOAD DUP2 LT ISZERO PUSH2 0x14E0 JUMPI DUP3 PUSH1 0x1 PUSH1 0x1 PUSH1 0xA0 SHL SUB AND PUSH1 0x9 DUP3 DUP2 SLOAD DUP2 LT PUSH2 0x14B3 JUMPI PUSH2 0x14B3 PUSH2 0x2393 JUMP JUMPDEST PUSH1 0x0 SWAP2 DUP3 MSTORE PUSH1 0x20 SWAP1 SWAP2 KECCAK256 ADD SLOAD PUSH1 0x1 PUSH1 0x1 PUSH1 0xA0 SHL SUB AND EQ ISZERO PUSH2 0x14D7 JUMPI POP PUSH1 0x1 SWAP3 SWAP2 POP POP JUMP JUMPDEST POP PUSH1 0x0 SWAP3 SWAP2 POP POP JUMP JUMPDEST POP SWAP2 SWAP1 POP JUMP JUMPDEST PUSH1 0x1 PUSH1 0x1 PUSH1 0xA0 SHL SUB DUP1 DUP3 AND PUSH1 0x0 SWAP1 DUP2 MSTORE PUSH1 0x7 PUSH1 0x20 MSTORE PUSH1 0x40 DUP1 DUP3 KECCAK256 SLOAD DUP2 MLOAD PUSH4 0x3FABE5A3 PUSH1 0xE2 SHL DUP2 MSTORE SWAP2 MLOAD SWAP3 SWAP4 DUP5 SWAP4 SWAP2 AND SWAP2 DUP3 SWAP2 DUP5 SWAP2 DUP4 SWAP2 PUSH4 0xFEAF968C SWAP2 PUSH1 0x4 DUP1 DUP3 ADD SWAP3 PUSH1 0xA0 SWAP3 SWAP1 SWAP2 SWAP1 DUP3 SWAP1 SUB ADD DUP2 DUP7 GAS STATICCALL ISZERO DUP1 ISZERO PUSH2 0x1547 JUMPI RETURNDATASIZE PUSH1 0x0 DUP1 RETURNDATACOPY RETURNDATASIZE PUSH1 0x0 REVERT JUMPDEST POP POP POP POP PUSH1 0x40 MLOAD RETURNDATASIZE PUSH1 0x1F NOT PUSH1 0x1F DUP3 ADD AND DUP3 ADD DUP1 PUSH1 0x40 MSTORE POP DUP2 ADD SWAP1 PUSH2 0x156B SWAP2 SWAP1 PUSH2 0x2421 JUMP JUMPDEST POP POP POP SWAP2 POP POP PUSH1 0x0 DUP3 PUSH1 0x1 PUSH1 0x1 PUSH1 0xA0 SHL SUB AND PUSH4 0x313CE567 PUSH1 0x40 MLOAD DUP2 PUSH4 0xFFFFFFFF AND PUSH1 0xE0 SHL DUP2 MSTORE PUSH1 0x4 ADD PUSH1 0x20 PUSH1 0x40 MLOAD DUP1 DUP4 SUB DUP2 DUP7 GAS STATICCALL ISZERO DUP1 ISZERO PUSH2 0x15B1 JUMPI RETURNDATASIZE PUSH1 0x0 DUP1 RETURNDATACOPY RETURNDATASIZE PUSH1 0x0 REVERT JUMPDEST POP POP POP POP PUSH1 0x40 MLOAD RETURNDATASIZE PUSH1 0x1F NOT PUSH1 0x1F DUP3 ADD AND DUP3 ADD DUP1 PUSH1 0x40 MSTORE POP DUP2 ADD SWAP1 PUSH2 0x15D5 SWAP2 SWAP1 PUSH2 0x2471 JUMP JUMPDEST SWAP2 SWAP8 PUSH1 0xFF SWAP1 SWAP3 AND SWAP7 POP SWAP1 SWAP5 POP POP POP POP POP JUMP JUMPDEST PUSH1 0x0 DUP3 GT PUSH2 0x1637 JUMPI PUSH1 0x40 MLOAD PUSH3 0x461BCD PUSH1 0xE5 SHL DUP2 MSTORE PUSH1 0x20 PUSH1 0x4 DUP3 ADD MSTORE PUSH1 0x19 PUSH1 0x24 DUP3 ADD MSTORE PUSH32 0x4120626574206D757374206265206D6F7265207468616E203000000000000000 PUSH1 0x44 DUP3 ADD MSTORE PUSH1 0x64 ADD PUSH2 0x57F JUMP JUMPDEST PUSH2 0x1640 DUP2 PUSH2 0x1489 JUMP JUMPDEST PUSH2 0x1688 JUMPI PUSH1 0x40 MLOAD PUSH3 0x461BCD PUSH1 0xE5 SHL DUP2 MSTORE PUSH1 0x20 PUSH1 0x4 DUP3 ADD MSTORE PUSH1 0x19 PUSH1 0x24 DUP3 ADD MSTORE PUSH25 0x151A1A5CC81D1BDAD95B881A5CC81B9BDD08185B1B1BDDD959 PUSH1 0x3A SHL PUSH1 0x44 DUP3 ADD MSTORE PUSH1 0x64 ADD PUSH2 0x57F JUMP JUMPDEST PUSH1 0x1 PUSH1 0x1 PUSH1 0xA0 SHL SUB DUP2 AND PUSH1 0x0 SWAP1 DUP2 MSTORE PUSH1 0x8 PUSH1 0x20 MSTORE PUSH1 0x40 SWAP1 KECCAK256 SLOAD PUSH1 0x5 GT PUSH2 0x1716 JUMPI PUSH1 0x40 MLOAD PUSH3 0x461BCD PUSH1 0xE5 SHL DUP2 MSTORE PUSH1 0x20 PUSH1 0x4 DUP3 ADD MSTORE PUSH1 0x38 PUSH1 0x24 DUP3 ADD MSTORE PUSH32 0x536F7272792C20746869732067616D6520697320616C72656164792066756C6C PUSH1 0x44 DUP3 ADD MSTORE PUSH32 0x2E20506C656173652077616974206E6578742067616D652E0000000000000000 PUSH1 0x64 DUP3 ADD MSTORE PUSH1 0x84 ADD PUSH2 0x57F JUMP JUMPDEST PUSH1 0x0 PUSH1 0x4 SLOAD PUSH1 0xFF AND PUSH1 0x2 DUP2 GT ISZERO PUSH2 0x172F JUMPI PUSH2 0x172F PUSH2 0x216A JUMP JUMPDEST EQ PUSH2 0x177C JUMPI PUSH1 0x40 MLOAD PUSH3 0x461BCD PUSH1 0xE5 SHL DUP2 MSTORE PUSH1 0x20 PUSH1 0x4 DUP3 ADD MSTORE PUSH1 0x1A PUSH1 0x24 DUP3 ADD MSTORE PUSH32 0x596F752063616E277420626574206D6F6E6579207768696C6520000000000000 PUSH1 0x44 DUP3 ADD MSTORE PUSH1 0x64 ADD PUSH2 0x57F JUMP JUMPDEST PUSH1 0x4 SLOAD PUSH1 0x1 PUSH1 0x1 PUSH1 0xA0 SHL SUB DUP3 DUP2 AND PUSH2 0x100 SWAP1 SWAP3 DIV AND EQ ISZERO PUSH2 0x1818 JUMPI PUSH1 0x5 SLOAD PUSH1 0x40 MLOAD PUSH4 0x23B872DD PUSH1 0xE0 SHL DUP2 MSTORE CALLER PUSH1 0x4 DUP3 ADD MSTORE ADDRESS PUSH1 0x24 DUP3 ADD MSTORE PUSH1 0x44 DUP2 ADD DUP5 SWAP1 MSTORE PUSH1 0x1 PUSH1 0x1 PUSH1 0xA0 SHL SUB SWAP1 SWAP2 AND SWAP1 PUSH4 0x23B872DD SWAP1 PUSH1 0x64 ADD PUSH1 0x20 PUSH1 0x40 MLOAD DUP1 DUP4 SUB DUP2 PUSH1 0x0 DUP8 GAS CALL ISZERO DUP1 ISZERO PUSH2 0x17EE JUMPI RETURNDATASIZE PUSH1 0x0 DUP1 RETURNDATACOPY RETURNDATASIZE PUSH1 0x0 REVERT JUMPDEST POP POP POP POP PUSH1 0x40 MLOAD RETURNDATASIZE PUSH1 0x1F NOT PUSH1 0x1F DUP3 ADD AND DUP3 ADD DUP1 PUSH1 0x40 MSTORE POP DUP2 ADD SWAP1 PUSH2 0x1812 SWAP2 SWAP1 PUSH2 0x2222 JUMP JUMPDEST POP PUSH2 0x1891 JUMP JUMPDEST PUSH1 0x40 MLOAD PUSH4 0x23B872DD PUSH1 0xE0 SHL DUP2 MSTORE CALLER PUSH1 0x4 DUP3 ADD MSTORE ADDRESS PUSH1 0x24 DUP3 ADD MSTORE PUSH1 0x44 DUP2 ADD DUP4 SWAP1 MSTORE PUSH1 0x1 PUSH1 0x1 PUSH1 0xA0 SHL SUB DUP3 AND SWAP1 PUSH4 0x23B872DD SWAP1 PUSH1 0x64 ADD PUSH1 0x20 PUSH1 0x40 MLOAD DUP1 DUP4 SUB DUP2 PUSH1 0x0 DUP8 GAS CALL ISZERO DUP1 ISZERO PUSH2 0x186B JUMPI RETURNDATASIZE PUSH1 0x0 DUP1 RETURNDATACOPY RETURNDATASIZE PUSH1 0x0 REVERT JUMPDEST POP POP POP POP PUSH1 0x40 MLOAD RETURNDATASIZE PUSH1 0x1F NOT PUSH1 0x1F DUP3 ADD AND DUP3 ADD DUP1 PUSH1 0x40 MSTORE POP DUP2 ADD SWAP1 PUSH2 0x188F SWAP2 SWAP1 PUSH2 0x2222 JUMP JUMPDEST POP JUMPDEST PUSH1 0x1 PUSH1 0x1 PUSH1 0xA0 SHL SUB DUP2 AND PUSH1 0x0 SWAP1 DUP2 MSTORE PUSH1 0x6 PUSH1 0x20 SWAP1 DUP2 MSTORE PUSH1 0x40 DUP1 DUP4 KECCAK256 CALLER DUP5 MSTORE SWAP1 SWAP2 MSTORE SWAP1 KECCAK256 SLOAD PUSH2 0x18C0 SWAP1 DUP4 SWAP1 PUSH2 0x23EF JUMP JUMPDEST PUSH1 0x1 PUSH1 0x1 PUSH1 0xA0 SHL SUB DUP3 AND PUSH1 0x0 DUP2 DUP2 MSTORE PUSH1 0x6 PUSH1 0x20 SWAP1 DUP2 MSTORE PUSH1 0x40 DUP1 DUP4 KECCAK256 CALLER DUP5 MSTORE DUP3 MSTORE DUP1 DUP4 KECCAK256 SWAP5 SWAP1 SWAP5 SSTORE SWAP2 DUP2 MSTORE PUSH1 0x8 SWAP1 SWAP2 MSTORE KECCAK256 SLOAD PUSH2 0x1915 JUMPI PUSH1 0x1 PUSH1 0x1 PUSH1 0xA0 SHL SUB DUP2 AND PUSH1 0x0 SWAP1 DUP2 MSTORE PUSH1 0xA PUSH1 0x20 MSTORE PUSH1 0x40 SWAP1 KECCAK256 DUP3 SWAP1 SSTORE PUSH2 0x1953 JUMP JUMPDEST PUSH1 0x1 PUSH1 0x1 PUSH1 0xA0 SHL SUB DUP2 AND PUSH1 0x0 SWAP1 DUP2 MSTORE PUSH1 0xA PUSH1 0x20 MSTORE PUSH1 0x40 SWAP1 KECCAK256 SLOAD PUSH2 0x1939 SWAP1 DUP4 SWAP1 PUSH2 0x23EF JUMP JUMPDEST PUSH1 0x1 PUSH1 0x1 PUSH1 0xA0 SHL SUB DUP3 AND PUSH1 0x0 SWAP1 DUP2 MSTORE PUSH1 0xA PUSH1 0x20 MSTORE PUSH1 0x40 SWAP1 KECCAK256 SSTORE JUMPDEST PUSH1 0x1 PUSH1 0x1 PUSH1 0xA0 SHL SUB AND PUSH1 0x0 DUP2 DUP2 MSTORE PUSH1 0x8 PUSH1 0x20 SWAP1 DUP2 MSTORE PUSH1 0x40 DUP1 DUP4 KECCAK256 DUP1 SLOAD PUSH1 0x1 DUP2 ADD DUP3 SSTORE SWAP1 DUP5 MSTORE DUP3 DUP5 KECCAK256 ADD DUP1 SLOAD PUSH1 0x1 PUSH1 0x1 PUSH1 0xA0 SHL SUB NOT AND CALLER SWAP1 DUP2 OR SWAP1 SWAP2 SSTORE SWAP4 DUP4 MSTORE PUSH1 0xB DUP3 MSTORE DUP1 DUP4 KECCAK256 SWAP4 DUP4 MSTORE SWAP3 SWAP1 MSTORE SWAP1 DUP2 KECCAK256 SSTORE POP JUMP JUMPDEST PUSH1 0x1 SLOAD PUSH1 0x1 PUSH1 0x1 PUSH1 0xA0 SHL SUB AND CALLER EQ PUSH2 0x19D0 JUMPI PUSH1 0x40 MLOAD PUSH3 0x461BCD PUSH1 0xE5 SHL DUP2 MSTORE PUSH1 0x4 ADD PUSH2 0x57F SWAP1 PUSH2 0x21ED JUMP JUMPDEST PUSH1 0x1 PUSH1 0x1 PUSH1 0xA0 SHL SUB DUP2 AND PUSH2 0x1A35 JUMPI PUSH1 0x40 MLOAD PUSH3 0x461BCD PUSH1 0xE5 SHL DUP2 MSTORE PUSH1 0x20 PUSH1 0x4 DUP3 ADD MSTORE PUSH1 0x26 PUSH1 0x24 DUP3 ADD MSTORE PUSH32 0x4F776E61626C653A206E6577206F776E657220697320746865207A65726F2061 PUSH1 0x44 DUP3 ADD MSTORE PUSH6 0x646472657373 PUSH1 0xD0 SHL PUSH1 0x64 DUP3 ADD MSTORE PUSH1 0x84 ADD PUSH2 0x57F JUMP JUMPDEST PUSH2 0x1A3E DUP2 PUSH2 0x1AC7 JUMP JUMPDEST POP JUMP JUMPDEST PUSH1 0x1 PUSH1 0x1 PUSH1 0xA0 SHL SUB DUP1 DUP3 AND PUSH1 0x0 SWAP1 DUP2 MSTORE PUSH1 0x6 PUSH1 0x20 SWAP1 DUP2 MSTORE PUSH1 0x40 DUP3 KECCAK256 SWAP3 DUP6 AND DUP3 MSTORE SWAP2 SWAP1 SWAP2 MSTORE PUSH1 0x0 DUP1 PUSH2 0x1A71 DUP5 PUSH2 0x14E6 JUMP JUMPDEST SWAP1 SWAP3 POP SWAP1 POP PUSH2 0x1A81 DUP2 PUSH1 0xA PUSH2 0x233E JUMP JUMPDEST PUSH1 0x1 PUSH1 0x1 PUSH1 0xA0 SHL SUB DUP1 DUP7 AND PUSH1 0x0 SWAP1 DUP2 MSTORE PUSH1 0x6 PUSH1 0x20 SWAP1 DUP2 MSTORE PUSH1 0x40 DUP1 DUP4 KECCAK256 SWAP4 DUP11 AND DUP4 MSTORE SWAP3 SWAP1 MSTORE KECCAK256 SLOAD PUSH2 0x1AB2 SWAP1 DUP5 SWAP1 PUSH2 0x234A JUMP JUMPDEST PUSH2 0x1ABC SWAP2 SWAP1 PUSH2 0x237F JUMP JUMPDEST SWAP3 POP POP POP JUMPDEST SWAP3 SWAP2 POP POP JUMP JUMPDEST PUSH1 0x1 DUP1 SLOAD PUSH1 0x1 PUSH1 0x1 PUSH1 0xA0 SHL SUB DUP4 DUP2 AND PUSH1 0x1 PUSH1 0x1 PUSH1 0xA0 SHL SUB NOT DUP4 AND DUP2 OR SWAP1 SWAP4 SSTORE PUSH1 0x40 MLOAD SWAP2 AND SWAP2 SWAP1 DUP3 SWAP1 PUSH32 0x8BE0079C531659141344CD1FD0A4F28419497F9722A3DAAFE3B4186F6B6457E0 SWAP1 PUSH1 0x0 SWAP1 LOG3 POP POP JUMP JUMPDEST PUSH1 0x0 PUSH32 0x0 PUSH1 0x1 PUSH1 0x1 PUSH1 0xA0 SHL SUB AND PUSH4 0x4000AEA0 PUSH32 0x0 DUP5 DUP7 PUSH1 0x0 PUSH1 0x40 MLOAD PUSH1 0x20 ADD PUSH2 0x1B89 SWAP3 SWAP2 SWAP1 SWAP2 DUP3 MSTORE PUSH1 0x20 DUP3 ADD MSTORE PUSH1 0x40 ADD SWAP1 JUMP JUMPDEST PUSH1 0x40 MLOAD PUSH1 0x20 DUP2 DUP4 SUB SUB DUP2 MSTORE SWAP1 PUSH1 0x40 MSTORE PUSH1 0x40 MLOAD DUP5 PUSH4 0xFFFFFFFF AND PUSH1 0xE0 SHL DUP2 MSTORE PUSH1 0x4 ADD PUSH2 0x1BB6 SWAP4 SWAP3 SWAP2 SWAP1 PUSH2 0x2494 JUMP JUMPDEST PUSH1 0x20 PUSH1 0x40 MLOAD DUP1 DUP4 SUB DUP2 PUSH1 0x0 DUP8 GAS CALL ISZERO DUP1 ISZERO PUSH2 0x1BD5 JUMPI RETURNDATASIZE PUSH1 0x0 DUP1 RETURNDATACOPY RETURNDATASIZE PUSH1 0x0 REVERT JUMPDEST POP POP POP POP PUSH1 0x40 MLOAD RETURNDATASIZE PUSH1 0x1F NOT PUSH1 0x1F DUP3 ADD AND DUP3 ADD DUP1 PUSH1 0x40 MSTORE POP DUP2 ADD SWAP1 PUSH2 0x1BF9 SWAP2 SWAP1 PUSH2 0x2222 JUMP JUMPDEST POP PUSH1 0x0 DUP4 DUP2 MSTORE PUSH1 0x20 DUP2 DUP2 MSTORE PUSH1 0x40 DUP1 DUP4 KECCAK256 SLOAD DUP2 MLOAD DUP1 DUP5 ADD DUP9 SWAP1 MSTORE DUP1 DUP4 ADD DUP6 SWAP1 MSTORE ADDRESS PUSH1 0x60 DUP3 ADD MSTORE PUSH1 0x80 DUP1 DUP3 ADD DUP4 SWAP1 MSTORE DUP4 MLOAD DUP1 DUP4 SUB SWAP1 SWAP2 ADD DUP2 MSTORE PUSH1 0xA0 SWAP1 SWAP2 ADD SWAP1 SWAP3 MSTORE DUP2 MLOAD SWAP2 DUP4 ADD SWAP2 SWAP1 SWAP2 KECCAK256 DUP7 DUP5 MSTORE SWAP3 SWAP1 SWAP2 MSTORE PUSH2 0x1C53 SWAP1 PUSH1 0x1 PUSH2 0x23EF JUMP JUMPDEST PUSH1 0x0 DUP6 DUP2 MSTORE PUSH1 0x20 DUP2 DUP2 MSTORE PUSH1 0x40 SWAP2 DUP3 SWAP1 KECCAK256 SWAP3 SWAP1 SWAP3 SSTORE DUP1 MLOAD DUP1 DUP4 ADD DUP8 SWAP1 MSTORE DUP1 DUP3 ADD DUP5 SWAP1 MSTORE DUP2 MLOAD DUP1 DUP3 SUB DUP4 ADD DUP2 MSTORE PUSH1 0x60 SWAP1 SWAP2 ADD SWAP1 SWAP2 MSTORE DUP1 MLOAD SWAP2 ADD KECCAK256 PUSH2 0x675 JUMP JUMPDEST PUSH1 0x2 PUSH1 0x4 SLOAD PUSH1 0xFF AND PUSH1 0x2 DUP2 GT ISZERO PUSH2 0x1CA9 JUMPI PUSH2 0x1CA9 PUSH2 0x216A JUMP JUMPDEST EQ PUSH2 0x1CEE JUMPI PUSH1 0x40 MLOAD PUSH3 0x461BCD PUSH1 0xE5 SHL DUP2 MSTORE PUSH1 0x20 PUSH1 0x4 DUP3 ADD MSTORE PUSH1 0x15 PUSH1 0x24 DUP3 ADD MSTORE PUSH21 0x596F75206172656E27742074686572652079657421 PUSH1 0x58 SHL PUSH1 0x44 DUP3 ADD MSTORE PUSH1 0x64 ADD PUSH2 0x57F JUMP JUMPDEST PUSH1 0x0 DUP2 GT PUSH2 0x1D31 JUMPI PUSH1 0x40 MLOAD PUSH3 0x461BCD PUSH1 0xE5 SHL DUP2 MSTORE PUSH1 0x20 PUSH1 0x4 DUP3 ADD MSTORE PUSH1 0x10 PUSH1 0x24 DUP3 ADD MSTORE PUSH16 0x1C985B991BDB4B5B9BDD0B599BDD5B99 PUSH1 0x82 SHL PUSH1 0x44 DUP3 ADD MSTORE PUSH1 0x64 ADD PUSH2 0x57F JUMP JUMPDEST PUSH1 0x11 DUP2 SWAP1 SSTORE PUSH1 0x0 PUSH2 0x1D43 PUSH1 0xE DUP4 PUSH2 0x23DB JUMP JUMPDEST SWAP1 POP DUP1 PUSH2 0x1D4E JUMPI POP PUSH1 0x1 JUMPDEST PUSH1 0xF SLOAD PUSH1 0x1 PUSH1 0x1 PUSH1 0xA0 SHL SUB AND PUSH1 0x0 SWAP1 DUP2 MSTORE PUSH1 0x8 PUSH1 0x20 SWAP1 DUP2 MSTORE PUSH1 0x40 DUP1 DUP4 KECCAK256 PUSH1 0xC SWAP1 SWAP3 MSTORE DUP3 KECCAK256 SLOAD DUP2 SLOAD DUP2 LT PUSH2 0x1D83 JUMPI PUSH2 0x1D83 PUSH2 0x2393 JUMP JUMPDEST PUSH1 0x0 SWAP2 DUP3 MSTORE PUSH1 0x20 DUP1 DUP4 KECCAK256 SWAP1 SWAP2 ADD SLOAD PUSH1 0xF DUP1 SLOAD PUSH1 0x1 PUSH1 0x1 PUSH1 0xA0 SHL SUB SWAP1 DUP2 AND DUP6 MSTORE PUSH1 0xB DUP5 MSTORE PUSH1 0x40 DUP1 DUP7 KECCAK256 SWAP4 DUP3 AND DUP1 DUP8 MSTORE SWAP4 DUP6 MSTORE DUP1 DUP7 KECCAK256 DUP9 SWAP1 SSTORE DUP3 SLOAD DUP3 AND DUP7 MSTORE PUSH1 0xD DUP6 MSTORE DUP1 DUP7 KECCAK256 DUP1 SLOAD PUSH1 0x1 DUP2 DUP2 ADD DUP4 SSTORE SWAP2 DUP9 MSTORE DUP7 DUP9 KECCAK256 ADD DUP10 SWAP1 SSTORE SWAP3 SLOAD SWAP1 SWAP2 AND DUP6 MSTORE PUSH1 0xC SWAP1 SWAP4 MSTORE SWAP2 DUP4 KECCAK256 DUP1 SLOAD SWAP2 SWAP5 POP SWAP2 SWAP3 SWAP1 PUSH2 0x1DFC SWAP1 DUP5 SWAP1 PUSH2 0x23EF JUMP JUMPDEST SWAP1 SWAP2 SSTORE POP POP POP POP POP POP JUMP JUMPDEST PUSH1 0x0 DUP1 JUMPDEST PUSH1 0x1 PUSH1 0x1 PUSH1 0xA0 SHL SUB DUP5 AND PUSH1 0x0 SWAP1 DUP2 MSTORE PUSH1 0x8 PUSH1 0x20 MSTORE PUSH1 0x40 SWAP1 KECCAK256 SLOAD DUP2 LT ISZERO PUSH2 0x1E8F JUMPI PUSH1 0x1 PUSH1 0x1 PUSH1 0xA0 SHL SUB DUP5 DUP2 AND PUSH1 0x0 SWAP1 DUP2 MSTORE PUSH1 0x8 PUSH1 0x20 MSTORE PUSH1 0x40 SWAP1 KECCAK256 DUP1 SLOAD SWAP2 DUP6 AND SWAP2 DUP4 SWAP1 DUP2 LT PUSH2 0x1E5A JUMPI PUSH2 0x1E5A PUSH2 0x2393 JUMP JUMPDEST PUSH1 0x0 SWAP2 DUP3 MSTORE PUSH1 0x20 SWAP1 SWAP2 KECCAK256 ADD SLOAD PUSH1 0x1 PUSH1 0x1 PUSH1 0xA0 SHL SUB AND EQ ISZERO PUSH2 0x1E7D JUMPI DUP1 SWAP2 POP PUSH2 0x1E8F JUMP JUMPDEST DUP1 PUSH2 0x1E87 DUP2 PUSH2 0x23A9 JUMP JUMPDEST SWAP2 POP POP PUSH2 0x1E0B JUMP JUMPDEST POP DUP1 JUMPDEST PUSH1 0x1 PUSH1 0x1 PUSH1 0xA0 SHL SUB DUP5 AND PUSH1 0x0 SWAP1 DUP2 MSTORE PUSH1 0x8 PUSH1 0x20 MSTORE PUSH1 0x40 SWAP1 KECCAK256 SLOAD PUSH2 0x1EB7 SWAP1 PUSH1 0x1 SWAP1 PUSH2 0x23C4 JUMP JUMPDEST DUP2 LT ISZERO PUSH2 0x1F69 JUMPI PUSH1 0x1 PUSH1 0x1 PUSH1 0xA0 SHL SUB DUP5 AND PUSH1 0x0 SWAP1 DUP2 MSTORE PUSH1 0x8 PUSH1 0x20 MSTORE PUSH1 0x40 SWAP1 KECCAK256 PUSH2 0x1EE1 DUP3 PUSH1 0x1 PUSH2 0x23EF JUMP JUMPDEST DUP2 SLOAD DUP2 LT PUSH2 0x1EF1 JUMPI PUSH2 0x1EF1 PUSH2 0x2393 JUMP JUMPDEST PUSH1 0x0 SWAP2 DUP3 MSTORE PUSH1 0x20 DUP1 DUP4 KECCAK256 SWAP1 SWAP2 ADD SLOAD PUSH1 0x1 PUSH1 0x1 PUSH1 0xA0 SHL SUB DUP8 DUP2 AND DUP5 MSTORE PUSH1 0x8 SWAP1 SWAP3 MSTORE PUSH1 0x40 SWAP1 SWAP3 KECCAK256 DUP1 SLOAD SWAP2 SWAP1 SWAP3 AND SWAP2 SWAP1 DUP4 SWAP1 DUP2 LT PUSH2 0x1F2E JUMPI PUSH2 0x1F2E PUSH2 0x2393 JUMP JUMPDEST PUSH1 0x0 SWAP2 DUP3 MSTORE PUSH1 0x20 SWAP1 SWAP2 KECCAK256 ADD DUP1 SLOAD PUSH1 0x1 PUSH1 0x1 PUSH1 0xA0 SHL SUB NOT AND PUSH1 0x1 PUSH1 0x1 PUSH1 0xA0 SHL SUB SWAP3 SWAP1 SWAP3 AND SWAP2 SWAP1 SWAP2 OR SWAP1 SSTORE DUP1 PUSH2 0x1F61 DUP2 PUSH2 0x23A9 JUMP JUMPDEST SWAP2 POP POP PUSH2 0x1E92 JUMP JUMPDEST POP POP POP POP JUMP JUMPDEST PUSH1 0x1 PUSH1 0x1 PUSH1 0xA0 SHL SUB DUP2 AND PUSH1 0x0 SWAP1 DUP2 MSTORE PUSH1 0x8 PUSH1 0x20 MSTORE PUSH1 0x40 DUP2 KECCAK256 SLOAD DUP2 SWAP1 ISZERO PUSH2 0x14E0 JUMPI PUSH1 0x1 PUSH1 0x1 PUSH1 0xA0 SHL SUB DUP4 AND PUSH1 0x0 SWAP1 DUP2 MSTORE PUSH1 0x8 PUSH1 0x20 MSTORE PUSH1 0x40 DUP2 KECCAK256 DUP1 SLOAD DUP4 SWAP1 DUP2 LT PUSH2 0x1FB9 JUMPI PUSH2 0x1FB9 PUSH2 0x2393 JUMP JUMPDEST PUSH1 0x0 SWAP2 DUP3 MSTORE PUSH1 0x20 DUP1 DUP4 KECCAK256 SWAP1 SWAP2 ADD SLOAD PUSH1 0x1 PUSH1 0x1 PUSH1 0xA0 SHL SUB DUP8 DUP2 AND DUP5 MSTORE PUSH1 0xB DUP4 MSTORE PUSH1 0x40 DUP1 DUP6 KECCAK256 SWAP2 SWAP1 SWAP3 AND DUP1 DUP6 MSTORE SWAP3 MSTORE SWAP1 SWAP2 KECCAK256 SLOAD SWAP1 SWAP2 POP ISZERO PUSH2 0x1FFC JUMPI POP PUSH1 0x1 SWAP4 SWAP3 POP POP POP JUMP JUMPDEST POP PUSH1 0x0 SWAP4 SWAP3 POP POP POP JUMP JUMPDEST DUP3 DUP1 SLOAD DUP3 DUP3 SSTORE SWAP1 PUSH1 0x0 MSTORE PUSH1 0x20 PUSH1 0x0 KECCAK256 SWAP1 DUP2 ADD SWAP3 DUP3 ISZERO PUSH2 0x205B JUMPI SWAP2 PUSH1 0x20 MUL DUP3 ADD JUMPDEST DUP3 DUP2 GT ISZERO PUSH2 0x205B JUMPI DUP3 MLOAD DUP3 SLOAD PUSH1 0x1 PUSH1 0x1 PUSH1 0xA0 SHL SUB NOT AND PUSH1 0x1 PUSH1 0x1 PUSH1 0xA0 SHL SUB SWAP1 SWAP2 AND OR DUP3 SSTORE PUSH1 0x20 SWAP1 SWAP3 ADD SWAP2 PUSH1 0x1 SWAP1 SWAP2 ADD SWAP1 PUSH2 0x2026 JUMP JUMPDEST POP PUSH2 0x2067 SWAP3 SWAP2 POP PUSH2 0x20A6 JUMP JUMPDEST POP SWAP1 JUMP JUMPDEST DUP3 DUP1 SLOAD DUP3 DUP3 SSTORE SWAP1 PUSH1 0x0 MSTORE PUSH1 0x20 PUSH1 0x0 KECCAK256 SWAP1 DUP2 ADD SWAP3 DUP3 ISZERO PUSH2 0x205B JUMPI SWAP2 PUSH1 0x20 MUL DUP3 ADD JUMPDEST DUP3 DUP2 GT ISZERO PUSH2 0x205B JUMPI DUP3 MLOAD DUP3 SSTORE SWAP2 PUSH1 0x20 ADD SWAP2 SWAP1 PUSH1 0x1 ADD SWAP1 PUSH2 0x208B JUMP JUMPDEST JUMPDEST DUP1 DUP3 GT ISZERO PUSH2 0x2067 JUMPI PUSH1 0x0 DUP2 SSTORE PUSH1 0x1 ADD PUSH2 0x20A7 JUMP JUMPDEST DUP1 CALLDATALOAD PUSH1 0x1 PUSH1 0x1 PUSH1 0xA0 SHL SUB DUP2 AND DUP2 EQ PUSH2 0x13E0 JUMPI PUSH1 0x0 DUP1 REVERT JUMPDEST PUSH1 0x0 DUP1 PUSH1 0x40 DUP4 DUP6 SUB SLT ISZERO PUSH2 0x20E5 JUMPI PUSH1 0x0 DUP1 REVERT JUMPDEST PUSH2 0x20EE DUP4 PUSH2 0x20BB JUMP JUMPDEST SWAP5 PUSH1 0x20 SWAP4 SWAP1 SWAP4 ADD CALLDATALOAD SWAP4 POP POP POP JUMP JUMPDEST PUSH1 0x0 PUSH1 0x20 DUP3 DUP5 SUB SLT ISZERO PUSH2 0x210E JUMPI PUSH1 0x0 DUP1 REVERT JUMPDEST POP CALLDATALOAD SWAP2 SWAP1 POP JUMP JUMPDEST PUSH1 0x0 PUSH1 0x20 DUP3 DUP5 SUB SLT ISZERO PUSH2 0x2127 JUMPI PUSH1 0x0 DUP1 REVERT JUMPDEST PUSH2 0x2130 DUP3 PUSH2 0x20BB JUMP JUMPDEST SWAP4 SWAP3 POP POP POP JUMP JUMPDEST PUSH1 0x0 DUP1 PUSH1 0x40 DUP4 DUP6 SUB SLT ISZERO PUSH2 0x214A JUMPI PUSH1 0x0 DUP1 REVERT JUMPDEST PUSH2 0x2153 DUP4 PUSH2 0x20BB JUMP JUMPDEST SWAP2 POP PUSH2 0x2161 PUSH1 0x20 DUP5 ADD PUSH2 0x20BB JUMP JUMPDEST SWAP1 POP SWAP3 POP SWAP3 SWAP1 POP JUMP JUMPDEST PUSH4 0x4E487B71 PUSH1 0xE0 SHL PUSH1 0x0 MSTORE PUSH1 0x21 PUSH1 0x4 MSTORE PUSH1 0x24 PUSH1 0x0 REVERT JUMPDEST PUSH1 0x20 DUP2 ADD PUSH1 0x3 DUP4 LT PUSH2 0x21A2 JUMPI PUSH4 0x4E487B71 PUSH1 0xE0 SHL PUSH1 0x0 MSTORE PUSH1 0x21 PUSH1 0x4 MSTORE PUSH1 0x24 PUSH1 0x0 REVERT JUMPDEST SWAP2 SWAP1 MSTORE SWAP1 JUMP JUMPDEST PUSH1 0x0 DUP1 PUSH1 0x40 DUP4 DUP6 SUB SLT ISZERO PUSH2 0x21BB JUMPI PUSH1 0x0 DUP1 REVERT JUMPDEST POP POP DUP1 CALLDATALOAD SWAP3 PUSH1 0x20 SWAP1 SWAP2 ADD CALLDATALOAD SWAP2 POP JUMP JUMPDEST PUSH1 0x0 DUP1 PUSH1 0x40 DUP4 DUP6 SUB SLT ISZERO PUSH2 0x21DD JUMPI PUSH1 0x0 DUP1 REVERT JUMPDEST DUP3 CALLDATALOAD SWAP2 POP PUSH2 0x2161 PUSH1 0x20 DUP5 ADD PUSH2 0x20BB JUMP JUMPDEST PUSH1 0x20 DUP1 DUP3 MSTORE DUP2 DUP2 ADD MSTORE PUSH32 0x4F776E61626C653A2063616C6C6572206973206E6F7420746865206F776E6572 PUSH1 0x40 DUP3 ADD MSTORE PUSH1 0x60 ADD SWAP1 JUMP JUMPDEST PUSH1 0x0 PUSH1 0x20 DUP3 DUP5 SUB SLT ISZERO PUSH2 0x2234 JUMPI PUSH1 0x0 DUP1 REVERT JUMPDEST DUP2 MLOAD DUP1 ISZERO ISZERO DUP2 EQ PUSH2 0x2130 JUMPI PUSH1 0x0 DUP1 REVERT JUMPDEST PUSH4 0x4E487B71 PUSH1 0xE0 SHL PUSH1 0x0 MSTORE PUSH1 0x11 PUSH1 0x4 MSTORE PUSH1 0x24 PUSH1 0x0 REVERT JUMPDEST PUSH1 0x1 DUP2 DUP2 JUMPDEST DUP1 DUP6 GT ISZERO PUSH2 0x2295 JUMPI DUP2 PUSH1 0x0 NOT DIV DUP3 GT ISZERO PUSH2 0x227B JUMPI PUSH2 0x227B PUSH2 0x2244 JUMP JUMPDEST DUP1 DUP6 AND ISZERO PUSH2 0x2288 JUMPI SWAP2 DUP2 MUL SWAP2 JUMPDEST SWAP4 DUP5 SHR SWAP4 SWAP1 DUP1 MUL SWAP1 PUSH2 0x225F JUMP JUMPDEST POP SWAP3 POP SWAP3 SWAP1 POP JUMP JUMPDEST PUSH1 0x0 DUP3 PUSH2 0x22AC JUMPI POP PUSH1 0x1 PUSH2 0x1AC1 JUMP JUMPDEST DUP2 PUSH2 0x22B9 JUMPI POP PUSH1 0x0 PUSH2 0x1AC1 JUMP JUMPDEST DUP2 PUSH1 0x1 DUP2 EQ PUSH2 0x22CF JUMPI PUSH1 0x2 DUP2 EQ PUSH2 0x22D9 JUMPI PUSH2 0x22F5 JUMP JUMPDEST PUSH1 0x1 SWAP2 POP POP PUSH2 0x1AC1 JUMP JUMPDEST PUSH1 0xFF DUP5 GT ISZERO PUSH2 0x22EA JUMPI PUSH2 0x22EA PUSH2 0x2244 JUMP JUMPDEST POP POP PUSH1 0x1 DUP3 SHL PUSH2 0x1AC1 JUMP JUMPDEST POP PUSH1 0x20 DUP4 LT PUSH2 0x133 DUP4 LT AND PUSH1 0x4E DUP5 LT PUSH1 0xB DUP5 LT AND OR ISZERO PUSH2 0x2318 JUMPI POP DUP2 DUP2 EXP PUSH2 0x1AC1 JUMP JUMPDEST PUSH2 0x2322 DUP4 DUP4 PUSH2 0x225A JUMP JUMPDEST DUP1 PUSH1 0x0 NOT DIV DUP3 GT ISZERO PUSH2 0x2336 JUMPI PUSH2 0x2336 PUSH2 0x2244 JUMP JUMPDEST MUL SWAP4 SWAP3 POP POP POP JUMP JUMPDEST PUSH1 0x0 PUSH2 0x2130 DUP4 DUP4 PUSH2 0x229D JUMP JUMPDEST PUSH1 0x0 DUP2 PUSH1 0x0 NOT DIV DUP4 GT DUP3 ISZERO ISZERO AND ISZERO PUSH2 0x2364 JUMPI PUSH2 0x2364 PUSH2 0x2244 JUMP JUMPDEST POP MUL SWAP1 JUMP JUMPDEST PUSH4 0x4E487B71 PUSH1 0xE0 SHL PUSH1 0x0 MSTORE PUSH1 0x12 PUSH1 0x4 MSTORE PUSH1 0x24 PUSH1 0x0 REVERT JUMPDEST PUSH1 0x0 DUP3 PUSH2 0x238E JUMPI PUSH2 0x238E PUSH2 0x2369 JUMP JUMPDEST POP DIV SWAP1 JUMP JUMPDEST PUSH4 0x4E487B71 PUSH1 0xE0 SHL PUSH1 0x0 MSTORE PUSH1 0x32 PUSH1 0x4 MSTORE PUSH1 0x24 PUSH1 0x0 REVERT JUMPDEST PUSH1 0x0 PUSH1 0x0 NOT DUP3 EQ ISZERO PUSH2 0x23BD JUMPI PUSH2 0x23BD PUSH2 0x2244 JUMP JUMPDEST POP PUSH1 0x1 ADD SWAP1 JUMP JUMPDEST PUSH1 0x0 DUP3 DUP3 LT ISZERO PUSH2 0x23D6 JUMPI PUSH2 0x23D6 PUSH2 0x2244 JUMP JUMPDEST POP SUB SWAP1 JUMP JUMPDEST PUSH1 0x0 DUP3 PUSH2 0x23EA JUMPI PUSH2 0x23EA PUSH2 0x2369 JUMP JUMPDEST POP MOD SWAP1 JUMP JUMPDEST PUSH1 0x0 DUP3 NOT DUP3 GT ISZERO PUSH2 0x2402 JUMPI PUSH2 0x2402 PUSH2 0x2244 JUMP JUMPDEST POP ADD SWAP1 JUMP JUMPDEST DUP1 MLOAD PUSH10 0xFFFFFFFFFFFFFFFFFFFF DUP2 AND DUP2 EQ PUSH2 0x13E0 JUMPI PUSH1 0x0 DUP1 REVERT JUMPDEST PUSH1 0x0 DUP1 PUSH1 0x0 DUP1 PUSH1 0x0 PUSH1 0xA0 DUP7 DUP9 SUB SLT ISZERO PUSH2 0x2439 JUMPI PUSH1 0x0 DUP1 REVERT JUMPDEST PUSH2 0x2442 DUP7 PUSH2 0x2407 JUMP JUMPDEST SWAP5 POP PUSH1 0x20 DUP7 ADD MLOAD SWAP4 POP PUSH1 0x40 DUP7 ADD MLOAD SWAP3 POP PUSH1 0x60 DUP7 ADD MLOAD SWAP2 POP PUSH2 0x2465 PUSH1 0x80 DUP8 ADD PUSH2 0x2407 JUMP JUMPDEST SWAP1 POP SWAP3 SWAP6 POP SWAP3 SWAP6 SWAP1 SWAP4 POP JUMP JUMPDEST PUSH1 0x0 PUSH1 0x20 DUP3 DUP5 SUB SLT ISZERO PUSH2 0x2483 JUMPI PUSH1 0x0 DUP1 REVERT JUMPDEST DUP2 MLOAD PUSH1 0xFF DUP2 AND DUP2 EQ PUSH2 0x2130 JUMPI PUSH1 0x0 DUP1 REVERT JUMPDEST PUSH1 0x1 DUP1 PUSH1 0xA0 SHL SUB DUP5 AND DUP2 MSTORE PUSH1 0x0 PUSH1 0x20 DUP5 DUP2 DUP5 ADD MSTORE PUSH1 0x60 PUSH1 0x40 DUP5 ADD MSTORE DUP4 MLOAD DUP1 PUSH1 0x60 DUP6 ADD MSTORE PUSH1 0x0 JUMPDEST DUP2 DUP2 LT ISZERO PUSH2 0x24D6 JUMPI DUP6 DUP2 ADD DUP4 ADD MLOAD DUP6 DUP3 ADD PUSH1 0x80 ADD MSTORE DUP3 ADD PUSH2 0x24BA JUMP JUMPDEST DUP2 DUP2 GT ISZERO PUSH2 0x24E8 JUMPI PUSH1 0x0 PUSH1 0x80 DUP4 DUP8 ADD ADD MSTORE JUMPDEST POP PUSH1 0x1F ADD PUSH1 0x1F NOT AND SWAP3 SWAP1 SWAP3 ADD PUSH1 0x80 ADD SWAP6 SWAP5 POP POP POP POP POP JUMP INVALID LOG2 PUSH5 0x6970667358 0x22 SLT KECCAK256 LOG0 0xB4 PUSH1 0x83 NUMBER SDIV DUP3 JUMP 0xB2 SLOAD 0xD8 0xDF BYTE 0x4C DUP16 0xE4 CREATE 0xB6 0x2E DUP13 PUSH5 0xDE193403DD TIMESTAMP PUSH32 0x475ECE3B64736F6C634300080A00330000000000000000000000000000000000 ","sha1":"1aad96b4f32216c05d7104f63eb25d0a85ca47a1","source":"// SPDX-License-Identifier: MIT\npragma solidity ^0.8.0;\n\nimport \"@openzeppelin/contracts/access/Ownable.sol\";\nimport \"@openzeppelin/contracts/token/ERC20/IERC20.sol\"; // to create my own token or make available the token on smart contract\nimport \"@chainlink/contracts/src/v0.8/interfaces/AggregatorV3Interface.sol\"; // to get current rate of currencies\nimport \"@chainlink/contracts/src/v0.8/VRFConsumerBase.sol\"; // to get randomness function\n\ncontract CardGame is VRFConsumerBase, Ownable {\n    bytes32 public keyHash;\n    uint256 public fee;\n    event RequestedRandomness(bytes32 requestId);\n\n    enum GAME_STATE {\n        OPEN,\n        CLOSED,\n        CALCULATING_WINNER\n    }\n    GAME_STATE public game_state;\n    address public mscTokenAddress;\n    IERC20 public mscToken;\n\n    constructor(\n        address _vrfCoordinator,\n        address _link,\n        uint256 _fee,\n        bytes32 _keyHash,\n        address _mscTokenAddress\n    ) public VRFConsumerBase(_vrfCoordinator, _link) {\n        keyHash = _keyHash;\n        fee = _fee;\n        game_state = GAME_STATE.CLOSED;\n        mscTokenAddress = _mscTokenAddress;\n        mscToken = IERC20(_mscTokenAddress);\n    }\n\n    // token address > player address > amount\n    mapping(address => mapping(address => uint256)) public wagerOfPlayer;\n\n    // token address > priceFeed address\n    mapping(address => address) public tokenPriceFeeds;\n    //address[] public players;\n    // token address > player address list\n    mapping(address => address[]) public players;\n    address[] public allowedTokens;\n    //uint256 public totalPot = 0;\n    // token address > totalBetValue\n    mapping(address => uint256) public totalPot;\n    // token address > player address > card number\n    mapping(address => mapping(address => uint256)) public playersCardNumber;\n    // token > number of players\n    mapping(address => uint256) public playerCounter;\n    //uint256[] public cardsNumber;\n    mapping(address => uint256[]) public cardNumbers;\n    //address public winner = address(0); // you can't use 'null' in solidity\n    // token > winner\n    mapping(address => address) public winner;\n    //address public tokenToRandomness = address(0);\n    //player address => token addrss (to prevent to make not to people confuse when require randomness)\n    address public tokenToRandomness = address(0);\n    address public competedToken = address(0);\n    uint256 public randomness;\n\n    //function showMSCTokenAddress() public returns (address) {\n    //return mscTokenAddress;\n    //}\n    //function returnPublicVariables() public view returns () {\n    //return (game_state);\n    //}\n\n    function sendMSCToken(uint256 _amount) public onlyOwner {\n        mscToken.transfer(msg.sender, _amount); // from contract_address to owner_address\n    }\n\n    function issueTokens(address _token) public onlyOwner {\n        for (uint256 index = 0; index < players[_token].length; index++) {\n            address recipient = players[_token][index];\n            uint256 userTotalValue = getUserSingleTokenValue(recipient, _token);\n            mscToken.transfer(recipient, userTotalValue); // send players MSCToken as a reward\n        }\n    }\n\n    function allowToken(address _token) public onlyOwner {\n        allowedTokens.push(_token);\n    }\n\n    function tokenIsAllowed(address _token) public returns (bool) {\n        for (uint256 index = 0; index < allowedTokens.length; index += 1) {\n            if (allowedTokens[index] == _token) {\n                return true;\n            }\n            return false;\n        }\n    }\n\n    function playerIsAllowed(address _token) internal returns (bool) {\n        for (uint256 index = 0; index < players[_token].length; index++) {\n            address player = players[_token][index];\n            if (playersCardNumber[_token][player] != 0) {\n                return true;\n            } else {\n                return false;\n            }\n        }\n    }\n\n    function setPriceFeedContract(address _token, address _priceFeed)\n        public\n        onlyOwner\n    {\n        tokenPriceFeeds[_token] = _priceFeed;\n    }\n\n    function getTokenValue(address _token)\n        public\n        view\n        returns (uint256, uint256)\n    {\n        address priceFeedAddress = tokenPriceFeeds[_token];\n        // AggregatorV3Interface is for getting current rate of currencies\n        AggregatorV3Interface priceFeed = AggregatorV3Interface(\n            priceFeedAddress\n        );\n        (, int256 price, , , ) = priceFeed.latestRoundData();\n        uint256 decimals = uint256(priceFeed.decimals());\n        return (uint256(price), decimals);\n    }\n\n    // this func is for just calculating prices to send MSCToken to players as a reward.\n    function getUserSingleTokenValue(address _user, address _token)\n        internal\n        returns (uint256)\n    {\n        if (wagerOfPlayer[_token][_user] < 0) {\n            return 0;\n        }\n\n        (uint256 price, uint256 decimals) = getTokenValue(_token);\n        return ((wagerOfPlayer[_token][_user] * price) / (10**decimals));\n    }\n\n    // this func is for UI which each user use\n    function getPlayerSingleTokenValue(address _token)\n        public\n        view\n        returns (uint256)\n    {\n        if (wagerOfPlayer[_token][msg.sender] < 0) {\n            return 0;\n        }\n\n        (uint256 price, uint256 decimals) = getTokenValue(_token);\n        // 10 ETH (100000000000000000000)\n        // ETH/USD -> 100 (10000000000)\n        // 10 * 100 = 1,000\n        return ((wagerOfPlayer[_token][msg.sender] * price) / (10**decimals));\n    }\n\n    //function balanceOfCG() public view returns (uint256) {\n    //return address(this).balance;\n    //}\n\n    function removeFromPlayers(address _token, address _user) internal {\n        uint256 index;\n        for (uint256 i = 0; i < players[_token].length; i++) {\n            if (players[_token][i] == _user) {\n                index = i;\n                break;\n            }\n        }\n        for (uint256 e = index; e < players[_token].length - 1; e++) {\n            players[_token][e] = players[_token][e + 1];\n        }\n        //playerCounter -= 1;\n    }\n\n    function repayBetToken(uint256 _amount, address _token) public {\n        require(\n            game_state == GAME_STATE.OPEN || game_state == GAME_STATE.CLOSED,\n            \"You can't get the refund after game started!\"\n        );\n        require(\n            wagerOfPlayer[_token][msg.sender] >= _amount,\n            \"You didn't bet token of the amount!\"\n        );\n        require(\n            playersCardNumber[_token][msg.sender] == 0,\n            \"You drew your card, you can't refund!\"\n        );\n        IERC20(_token).transfer(msg.sender, _amount);\n        wagerOfPlayer[_token][msg.sender] =\n            wagerOfPlayer[_token][msg.sender] -\n            _amount;\n        totalPot[_token] = totalPot[_token] - _amount;\n        if (wagerOfPlayer[_token][msg.sender] <= 0) {\n            removeFromPlayers(_token, msg.sender);\n        }\n    }\n\n    function startGame() public onlyOwner {\n        require(\n            game_state == GAME_STATE.CLOSED,\n            \"Can't start new game state yet!\"\n        );\n\n        game_state = GAME_STATE.OPEN;\n    }\n\n    function betMoney(uint256 _amount, address _token) public {\n        require(_amount > 0, \"A bet must be more than 0\");\n        require(tokenIsAllowed(_token), \"This token is not allowed\");\n        require(\n            players[_token].length < 5,\n            \"Sorry, this game is already full. Please wait next game.\"\n        );\n        require(game_state == GAME_STATE.OPEN, \"You can't bet money while \");\n        //require(\n        //IERC20(_token).balanceOf(msg.sender) > 0,\n        //\"You don't have this token!\"\n        //);\n        //msg.sender.transfer(_amount);\n        //IERC20(_token).approve(address(this), _amount);\n\n        if (_token == mscTokenAddress) {\n            mscToken.transferFrom(msg.sender, address(this), _amount); // this 'msg.sender' must be owner of MSCToken, not third party address\n            //mscToken.transfer(address(this), _amount); // transfer(toAddress, amount);  sender(who call this func(this contact)) sends amount of token to toAddress\n        } else {\n            //IERC20(_token).transferFrom(msg.sender, address(this), _amount); // this function is avaiable only when owner of the token who gived the right this contract to handle allowance with approve function gives token to users.\n            IERC20(_token).transferFrom(msg.sender, address(this), _amount); // you can't use transferFrom when user send token to this contract.\n        }\n        wagerOfPlayer[_token][msg.sender] =\n            wagerOfPlayer[_token][msg.sender] +\n            _amount;\n        if (players[_token].length <= 0) {\n            totalPot[_token] = _amount;\n        } else {\n            totalPot[_token] = totalPot[_token] + _amount;\n        }\n        players[_token].push(msg.sender);\n        playersCardNumber[_token][msg.sender] = 0;\n        //playerCounter += 1;\n    }\n\n    function drawCards(address _token) public {\n        game_state = GAME_STATE.CALCULATING_WINNER;\n        tokenToRandomness = _token;\n\n        bytes32 requestId = requestRandomness(keyHash, fee);\n        emit RequestedRandomness(requestId);\n\n        //for (uint256 i = 0; i < players[competedToken].length; i++) {\n        //bytes32 requestId = requestRandomness(keyHash, fee); // let fulfillRandomness do\n        //emit RequestedRandomness(requestId);\n        //playerCounter += 1;\n        //}\n        //bytes32 requestId = requestRandomness(keyHash, fee);\n        //playerCounter = 0;\n    }\n\n    // Don't use 'msg.sender' in fulfillRandomness, cause user of this function is contract\n    function fulfillRandomness(bytes32 _requestId, uint256 _randomness)\n        internal\n        override\n    {\n        require(\n            game_state == GAME_STATE.CALCULATING_WINNER,\n            \"You aren't there yet!\"\n        );\n        require(_randomness > 0, \"random-not-found\");\n        randomness = _randomness;\n        uint256 cardNumber = _randomness % 14;\n        if (cardNumber == 0) {\n            cardNumber = 1;\n        }\n        address player = players[tokenToRandomness][\n            playerCounter[tokenToRandomness]\n        ];\n        playersCardNumber[tokenToRandomness][player] = cardNumber;\n        cardNumbers[tokenToRandomness].push(cardNumber);\n        playerCounter[tokenToRandomness] += 1;\n        //address player = players[competedToken][playerCounter];\n        //playersCardNumber[player] = cardNumber;\n    }\n\n    function getWinner(address _token) public onlyOwner returns (address) {\n        require(\n            game_state == GAME_STATE.CALCULATING_WINNER,\n            \"Game is not over yet!\"\n        );\n        require(\n            competedToken == address(0),\n            \"Before game is not over yet, owner have to pay reward to winner!\"\n        );\n        require(\n            playerIsAllowed(_token),\n            \"All participants needs to draw a card!\"\n        );\n\n        //for (uint256 i = 0; i < players[competedToken].length; i++) {\n        //uint256 cardNumber = playersCardNumber[players[competedToken][i]];\n        //cardsNumber.push(cardNumber);\n        //}\n        uint256 max = 0;\n\n        for (uint256 c = 0; c < cardNumbers[_token].length; c++) {\n            if (cardNumbers[_token][c] > max) {\n                max = cardNumbers[_token][c];\n                winner[_token] = players[_token][c];\n            } else if (cardNumbers[_token][c] == max) {\n                uint256 judge = max % 2;\n                if (judge == 0) {\n                    winner[_token] = players[_token][c];\n                } else if (judge == 1) {\n                    continue;\n                }\n            }\n        }\n        competedToken = _token;\n        return winner[_token];\n    }\n\n    function endGame() public onlyOwner {\n        require(\n            game_state == GAME_STATE.CALCULATING_WINNER,\n            \"You aren't there yet!\"\n        );\n        require(tokenIsAllowed(competedToken), \"This token is not allowed\");\n        require(\n            winner[competedToken] != address(0),\n            \"Still doesn't know which player is winner\"\n        );\n        //IERC20(_token).transfer(msg.sender, totalPot);\n        IERC20(competedToken).transferFrom(\n            msg.sender,\n            winner[competedToken],\n            totalPot[competedToken]\n        ); // You can use transferFrom only when you sends tokens to user. It's impossibel the reverse\n        totalPot[competedToken] = 0;\n        //players = new address[];\n        for (\n            uint256 index = 0;\n            index < players[competedToken].length;\n            index++\n        ) {\n            address player = players[competedToken][index];\n            wagerOfPlayer[competedToken][player] = 0;\n            playersCardNumber[competedToken][player] = 0;\n        }\n        tokenToRandomness = address(0);\n        playerCounter[competedToken] = 0;\n        players[competedToken] = new address[](0);\n        cardNumbers[competedToken] = new uint256[](0);\n        winner[competedToken] = address(0);\n        competedToken = address(0);\n        game_state = GAME_STATE.CLOSED;\n    }\n}\n","sourcePath":"contracts/CardGame.sol","type":"contract","deployment":{"address":"0x3f1B64E32cB111C553660DFf7996a7b654170E45","chainid":"42","blockHeight":29768394}}